:020000040800F2
:10000000F00A002091010008B1080008A9080008C2
:10001000AD080008410600085B1000080000000061
:10002000000000000000000000000000510A00086D
:10003000450600080000000039090008650B0008AB
:10004000AB010008AB010008AB010008AB010008E0
:10005000AB010008AB010008AB010008AB010008D0
:10006000AB010008AB010008AB010008AB010008C0
:10007000AB010008AB010008AB010008AB010008B0
:10008000AB010008AB010008AB010008AB010008A0
:10009000AB010008AB010008AB010008AB01000890
:1000A000AB010008AB010008AB010008AB01000880
:1000B000AB010008C90B0008AB010008AB01000848
:1000C000AB010008AB010008AB010008AB01000860
:1000D000AB0100087D0D0008410E0008AB010008CF
:1000E000AB010008AB010008AB01000800F002F80A
:1000F00000F03FF80AA090E8000C82448344AAF183
:100100000107DA4501D100F034F8AFF2090EBAE880
:100110000F0013F0010F18BFFB1A43F0010318473B
:100120005411000074110000103A24BF78C878C13F
:10013000FAD8520724BF30C830C144BF04680C60ED
:10014000704700000023002400250026103A28BF35
:1001500078C1FBD8520728BF30C148BF0B60704739
:10016000642900F0C380002070471FB51FBD10B583
:1001700010BD00F036FA1146FFF7F7FF00F0E8FF78
:1001800000F054FA03B4FFF7F2FF03BC00F0DEFF07
:100190000948804709480047FEE7FEE7FEE7FEE71B
:1001A000FEE7FEE7FEE7FEE7FEE7FEE70448054957
:1001B000054A064B70470000690B0008ED00000877
:1001C000F0040020F00A0020F0060020F0060020D5
:1001D000704753EA020C00F069802DE9F04B4FF0B4
:1001E0000006002B1FBFB3FA83F503FA05F424FAC7
:1001F00005F65E4012BF1643B2FA82F502FA05F424
:10020000C5F120051EBF22FA05FC44EA0C04203586
:1002100056EA044C4FEA144418BF641C4FF000081F
:100220004FF00009904271EB030C39D3002919BF3C
:10023000B1FA81F701FA07F6B0FA80F700FA07F68B
:10024000C7F120071EBF20FA07FC46EA0C0620373C
:10025000B6FBF4FCA7EB0507103F07F01F0BCBF133
:1002600020060CFA0BFB2CFA06F644BFB346002618
:10027000202FA4BF5E464FF0000B5BEA060C08BFC0
:100280004FF0010B19EB0B09ABFB027C48EB0608A6
:10029000C01B06FB02CC0BFB03CC71EB0C01C1E7CE
:1002A0000B46024641464846BDE8F08B13B54FF079
:1002B00000004FF00001AFF30080BDE81C40704724
:1002C0000FB41CB5084B06AA7B44694600900598FC
:1002D00000F06FF904460020694600F07DF92046E1
:1002E0001CBC5DF814FB00000D0300002DE9F0417B
:1002F0000646002410687529314616A510D0AFF3C4
:100300000080002802DA404213A507E031688A071E
:1003100001D512A502E0490704D511A5012401E089
:10032000AFF3008000210A2206F1240709E0B0FBA8
:10033000F2FCB0FBF2F302FB1C003030785418469C
:10034000491C0028F3D123462A463046BDE8F04137
:1003500000F0D0B8000000002D0000002B000000CD
:10036000200000002DE9F05F894604464FF0000AA6
:10037000DFF874B1FB44C0F820A02046E16888474C
:10038000002874D0252806D0D4E901219047206A9E
:10039000401C2062F1E700265F462046E16888475E
:1003A0002028054607DB312D05D2781910F8200CDE
:1003B00008B10643F1E7B00701D526F00406C4F8FA
:1003C0001CA00027C4F818A02A2D09D0284600F048
:1003D000B6FE38B304EB8708303DC8F8185019E072
:1003E00059F8041B204604EB87029161E1688847B5
:1003F000012F054618D1E069002820DA26F02006F2
:100400001DE0D8F8180000EB800005EB4000303804
:10041000C8F818002046E1688847054600F08FFEBE
:100420000028EED1012F0AD02E2D08D12046E168F8
:1004300088477F1C0546022F46F02006C4DBA069D2
:10044000002803DA404246F00106A061F00701D01F
:1004500026F010066C2D0BD0682D09D04C2D39D00C
:100460006A2D35D0742D35D07A2D33D016E038E092
:10047000E1682F4620468847B842054609D16C2FCF
:1004800026D04FF48060E168064320468847054641
:1004900004E06C2F1AD04FF4807006430DB3A5F121
:1004A0004100192802D8203546F400664A462946FC
:1004B000204626604E46FFF753FE80B101280BD040
:1004C000F61D26F0070000F1080956E74020E4E792
:1004D0008020D8E70020D6E706F104094DE728463A
:1004E00052E7206ABDE8F09FE80E000070477047B1
:1004F000704770472DE9F0470D46994692460446ED
:1005000000F124080168880604D5E06921F0100193
:10051000216000E00120A84201DD471B00E0002728
:10052000A1697A1902EB0900081AA0612078C006B7
:1005300002D42046AFF30080002608E0D4E9012170
:100540001AF806009047206A401C761C20624E452F
:10055000F4DB2078C0060AD52046AFF3008006E021
:10056000D4E9012130209047206A401C2062381EC7
:10057000A7F10107F4DC07E0D4E9012118F8050030
:100580009047206A401C2062281EA5F10105F3DC7B
:100590002046AFF300802078000602D50220BDE897
:1005A000F0870120FBE7000001694A1C026108781E
:1005B000704700B58FB0CDE90131002105910549A3
:1005C0007944CDE9031011466846FFF7CBFE0FB022
:1005D00000BD0000E5FFFFFF0A6802F8010B0A609A
:1005E0007047754600F028F8AE4605006946534648
:1005F00020F00700854618B020B5FFF7D7FDBDE80D
:1006000020404FF000064FF000074FF000084FF079
:10061000000B21F00701AC46ACE8C009ACE8C0090A
:10062000ACE8C009ACE8C0098D4670470446AFF39A
:1006300000802046FFF7A6FD004870479004002088
:1006400000BFFEE77047000010B56FF0040000F037
:1006500075FA0A4800680A49B0FBF1F009490870C8
:100660000846007800EB4001C1EBC0104FF6FF7167
:1006700001EAC0000449088010BD0000000000200D
:1006800000127A00280000202A0000200146114AAA
:1006900012884A434FF0E0235A6100229A611A46B9
:1006A000126942F001021A6100BF4FF0E0221069A6
:1006B00000F001021AB100F48032002AF5D04FF0A8
:1006C000E022126922F001024FF0E0231A610022B9
:1006D0009A6170472A0000200146114A12784A4365
:1006E0004FF0E0235A6100229A611A46126942F0E3
:1006F00001021A6100BF4FF0E022106900F0010210
:100700001AB100F48032002AF5D04FF0E0221269CD
:1007100022F001024FF0E0231A6100229A61704733
:10072000280000202DE9F041024600250026002087
:1007300000230024002791F803C00CF00F0591F866
:1007400003C00CF0100CBCF1000F03D091F802C0F4
:100750004CEA050591F800C0BCF1000F31D01468D7
:1007600000202BE04FF0010C0CFA00F3B1F800C0B0
:100770000CEA03069E4220D183004FF00F0C0CFAC6
:1007800003F7BC4305FA03FC4CEA040491F803C0E8
:10079000BCF1280F06D14FF0010C0CFA00FCC2F896
:1007A00014C00AE091F803C0BCF1480F05D14FF026
:1007B000010C0CFA00FCC2F810C0401C0828D1D370
:1007C0001460B1F800C0BCF1FF0F34DD54680020A4
:1007D0002EE000F1080C4FF0010808FA0CF3B1F814
:1007E00000C00CEA03069E4221D183004FF00F0C9B
:1007F0000CFA03F7BC4305FA03FC4CEA040491F835
:1008000003C0BCF1280F05D100F1080C08FA0CF860
:10081000C2F8148091F803C0BCF1480F07D100F171
:10082000080C4FF0010808FA0CF8C2F81080401CC0
:100830000828CED35460BDE8F081024600209368BA
:100840000B400BB1012000E0002070470AB10161AC
:1008500000E041617047000008B50121082000F068
:100860007DF810208DF803002020ADF80000032053
:100870008DF8020069460B48FFF754FF28208DF8D9
:1008800003004020ADF8000069460648FFF74AFF24
:10089000002220210348FFF7D9FF0F20FFF71CFF9C
:1008A00008BD0000000C014000BFFEE700BFFEE7EE
:1008B0007047000070B5002100230F22C47804B3F4
:1008C000154C246804F4E064C4F5E064210AC1F125
:1008D0000403CA40447804FA03F1847814402143A5
:1008E00009010E4C0678A155047804F01F05012477
:1008F000AC4005786D11AD0005F1E025C5F800416B
:1009000009E0047804F01F050124AC40044D06788A
:10091000761145F8264070BD0CED00E000E400E0E3
:1009200080E100E002490143024A11607047000083
:100930000000FA050CED00E07047000029B1064AFE
:10094000D2690243044BDA6104E0034AD26982436C
:10095000014BDA61704700000010024029B1064ADD
:1009600092690243044B9A6104E0034A926982430C
:10097000014B9A61704700000010024030B5002121
:100980000022002400232D4D6D6805F00C0121B1DB
:10099000042905D0082923D105E0294D056022E06E
:1009A000274D05601FE0254D6D6805F47012234D3D
:1009B0006D6805F48034022505EB92421CB9214D87
:1009C000554305600BE01D4D6D6805F400351DB104
:1009D0001C4D5543056002E0194D5543056002E08A
:1009E000174D056000BF00BF144D6D6805F0F001A4
:1009F0000909154D6B5C0568DD4045600F4D6D685C
:100A000005F4E061090A104D6B5C4568DD408560C6
:100A10000A4D6D6805F46051C90A0B4D6B5C456861
:100A2000DD40C560054D6D6805F44041890B074DFB
:100A30006B5CC568B5FBF3F5056130BD0010024085
:100A400000127A0000093D0014000020240000205C
:100A5000704710B500F002F810BD00000CB5002082
:100A6000019000903348006840F4803031490860BC
:100A700000BF3048006800F4003000900198401C2E
:100A80000190009818B90198B0F5A06FF1D12948EC
:100A9000006800F4003010B10120009001E0002057
:100AA00000900098012843D12348006840F01000CE
:100AB000214908600846006820F0030008600846E5
:100AC000006840F0020008601A4840681949486010
:100AD0000846406848600846406840F480604860C6
:100AE0000846406820F47C1048600846406840F49E
:100AF000E81048600846006840F08070086000BF59
:100B00000C48006800F000700028F9D009484068DF
:100B100020F00300074948600846406840F00200A2
:100B2000486000BF0348406800F00C000828F9D175
:100B30000CBD00000010024000200240042808D133
:100B40004FF0E021096941F004014FF0E02211610A
:100B500007E04FF0E021096921F004014FF0E022A5
:100B6000116170477047000010B51348006840F0ED
:100B700001001149086008464068104908400E49C4
:100B80004860084600680E4908400B49086008465E
:100B9000006820F4802008600846406820F4FE00C9
:100BA00048604FF41F008860FFF753FF4FF000606C
:100BB0000449086010BD0000001002400000FFF86A
:100BC000FFFFF6FE08ED00E010B50121094800F036
:100BD00027F801280CD10848D0E90020521C40F128
:100BE00000000549C1E900200121024800F009F890
:100BF00010BD00000004004050000020CA430282E3
:100C00007047CA430282704721B1028842F0010254
:100C1000028004E002884FF6FE731A40028070479B
:100C200030B50246002000230024158A05EA01039E
:100C3000958905EA010413B10CB1012000E0002000
:100C400030BD1AB183890B43838102E083898B43D2
:100C50008381704701894FF6F87211400181704716
:100C6000002202881D4B98420ED01D4B98420BD09B
:100C7000B0F1804F08D01B4B984205D01A4B9842D8
:100C800002D01A4B984204D14FF68F731A404B880A
:100C90001A43174B984207D0164B984204D04FF690
:100CA000FF431A40CB881A4302808B8883850B88C8
:100CB00003850A4B98420BD0094B984208D00E4B43
:100CC000984205D00D4B984202D00D4B984201D16D
:100CD0000B7A03860123838270470000002C0140B9
:100CE000003401400004004000080040000C0040B7
:100CF000001000400014004000400140004401404A
:100D0000004801401FB501210220FFF717FE1A48D5
:100D1000FFF7A0FF0020ADF80A00ADF8060009209B
:100D2000ADF808004720ADF8040000208DF80C0055
:100D300001A91148FFF794FF01210F48FFF75EFF5B
:100D4000012211460C48FFF77CFF4FF4A060FFF72B
:100D5000E9FD1D208DF8000001208DF80300022020
:100D60008DF801008DF802006846FFF7A3FD012110
:100D70000148FFF749FF1FBD0004004010B540F2D5
:100D800025511E4800F0A4F8002836D01B4800F07A
:100D90005BF904461A490868411C194B1960194946
:100DA0000C540120184908600D2C01D00A2C02D1E6
:100DB0000020134908600D2C0AD00A2C08D0202CE2
:100DC00006D00F490868411C0D4B19600D490C54A1
:100DD0000E480068012805D1084800F035F90C4993
:100DE000087002E000200A490870054800681E28C3
:100DF00002DB00200249086000BF10BD003801403E
:100E000030000020600000202C0000203400002072
:100E10003C00002010B504460BE014F8011B074805
:100E200000F017F900BF8021044800F044F80028C2
:100E3000F9D020780028F0D110BD00000038014022
:100E400010B540F225510E4800F042F8B0B10D48FF
:100E50000088FF2802D900200A4908800848001DA0
:100E60000088C1B2074802880088401C054B1880E2
:100E7000054881542021024800F008F810BD000008
:100E800000440040480000206003002001F400728C
:100E9000B2F5007F00D100BFCA430280704721B184
:100EA000828942F40052828104E082894DF6FF7308
:100EB0001A408281704702460020B1F5007F00D1C0
:100EC00000BF13880B400BB1012000E000207047E9
:100ED00070B50246002400230025002040F66A1663
:100EE000B14200D100BFC1F3421501F01F0301263A
:100EF00006FA03F3012D02D19689334006E0022D54
:100F000002D1168A334001E0968A33400C12012642
:100F100006FA04F41688344013B10CB1012000E045
:100F2000002070BDF0B503460024002600250020F7
:100F300040F66A17B94200D100BF1846C1F3421407
:100F400001F01F06012707FA06F5012C01D10C302C
:100F500004E0022C01D1103000E014301AB107680F
:100F60002F43076002E00768AF430760F0BD000051
:100F70002DE9F04786B005460E460024A24600BF84
:100F8000A1460027B08900B100BF2F462C8A4CF63D
:100F9000FF700440F08804432C82AC894EF6F310B5
:100FA0000440B08831890843718908430443AC8107
:100FB000AC8A4FF6FF400440B0890443AC8201A8DC
:100FC000FFF7DCFC1F48874202D1DDF810A001E0EA
:100FD000DDF80CA0A88900F4004040B10AEBCA007B
:100FE00000EB0A1031684900B0FBF1F807E00AEBAA
:100FF000CA0000EB0A1031688900B0FBF1F86420E8
:10100000B8FBF0F004012009642101FB1089A889D4
:1010100000F4004040B1322000EBC900B0FBF1F019
:1010200000F00700044308E0322000EB09106421BF
:10103000B0FBF1F000F00F0004432C8106B0BDE8D6
:10104000F08700000038014001468888C0F308009E
:101050007047C1F308028280704700BFFEE70000BE
:1010600010B586B0044601210420FFF777FC01216A
:101070008803FFF773FC18208DF817004FF40070F9
:10108000ADF8140003208DF8160005A91D48FFF7E0
:1010900049FB04208DF817000002ADF8140003206E
:1010A0008DF8160005A91748FFF73CFB25208DF8A1
:1010B000000001208DF8030000208DF801008DF85C
:1010C00002006846FFF7F6FB01940020ADF810001F
:1010D0000C20ADF80E000020ADF80C00ADF80A00B1
:1010E000ADF8080001A90848FFF742FF012240F2CD
:1010F00025510548FFF716FF01210348FFF7CFFEF2
:1011000006B010BD00080140003801402DE9F04153
:1011100007460C46154600260DE014F8011B38461C
:10112000FFF797FF00BF40213846FFF7C4FE0028B5
:10113000F9D0701C86B2AE42EFDBBDE8F0813038EA
:101140000A2801D2012070470020704700BF704775
:10115000FFF77AFA4FF41650FFF782FFFFF7D2FD40
:10116000FFF77AFB4FF4C870FFF790FA17E000F032
:1011700027F804464FF4FA70FFF788FA08A0FFF743
:1011800049FE08A0FFF746FE22460AA10A48FFF7DB
:1011900097F8042208490948FFF7B8FF00BFE6E7BF
:1011A0000D0A000044697374616E6365286D6D29D2
:1011B0003A0000002564000060040020003801406F
:1011C0002DE9F0410025012220212248FFF73EFBB6
:1011D0000F20FFF781FA002220211E48FFF736FB7F
:1011E00000BF40211B48FFF728FB0028F9D0002151
:1011F000194A1160516000BF40211648FFF71DFBDE
:101200000128F9D01448D0E90010144AC2E90010AE
:1012100064220023114903C9FEF7DBFF263871F170
:10122000000113D20D484FF4AD7306C80020A1FB96
:10123000036802FB038201FB0021022203463046C1
:10124000FEF7C7FF04466420B4FBF0F528B2BDE802
:10125000F0810000000C01405000002058000020E8
:10126000040000080000000000000002000100006F
:101270001000000094120008000000206000000030
:1012800028010008F412000860000020900A000005
:101290004401000800A24A04000000000000000011
:1012A000010203040607080900000000010203040C
:1012B00001020304060708090204060800000000F2
:1012C000000000000000000001000000000000001D
:1012D000000000000100000000000000000000000D
:1012E00000000000000000000000000000000000FE
:0412F00000000000FA
:04000005080000ED02
:00000001FF
