:020000040800F2
:1000000068080020A1010008E11100083D10000867
:10001000DD110008610D00085F19000800000000F4
:10002000000000000000000000000000A51400080F
:10003000650D00080000000069120008B9150008ED
:10004000BB010008BB010008BB010008BB010008A0
:10005000BB010008BB010008BB010008BB01000890
:10006000BB010008BB010008BB010008BB01000880
:10007000BB010008BB010008BB010008BB01000870
:10008000BB010008BB010008BB010008BB01000860
:10009000BB010008BB010008BB010008690D000896
:1000A000BB010008BB010008BB010008BB01000840
:1000B000BB010008BB010008BB010008BB01000830
:1000C000BB010008BB010008BB010008BB01000820
:1000D000BB01000859160008BB010008BB0100085D
:1000E000BB010008BB010008BB01000800F002F8DA
:1000F00000F047F80AA090E8000C82448344AAF17B
:100100000107DA4501D100F03CF8AFF2090EBAE878
:100110000F0013F0010F18BFFB1A43F0010318473B
:10012000F8190000181A0000103A24BF78C878C1E6
:10013000FAD8520724BF30C830C144BF04680C60ED
:10014000704700000023002400250026103A28BF35
:1001500078C1FBD8520728BF30C148BF0B60704739
:10016000782900F04980002070471FB59DE8030002
:1001700000F0C8FB00F092F91FBD10B500F0F7F9D0
:1001800010BD00F05AFA1146FFF7EFFF01F04EFCE8
:1001900000F05EFB03B4FFF7F0FF03BC00F044FD8A
:1001A0000948804709480047FEE7FEE7FEE7FEE70B
:1001B000FEE7FEE7FEE7FEE7FEE7FEE70448054947
:1001C000054A064B70470000F9150008ED000008CD
:1001D00068020020680800206804002068040020ED
:1001E0000FB4044910B503AA029800F029F910BC15
:1001F0005DF814FB5C01002070B504460D462146F5
:100200001068AFF300802188090502D50F4A7A44AF
:1002100002E00E4A7A440E32002104F1240305E084
:1002200000F00F060009965D5E54491C0028F7D1C6
:1002300020780023000704D5702D02D009B10223D5
:1002400011322046BDE8704000F0A1B8BE18000091
:100250002DE9F05F894604464FF0000ADFF824B12B
:10026000FB44C0F820A02046E168884700287DD0E4
:10027000252806D0D4E901219047206A401C20623D
:10028000F1E700255F462046E168884720280646BA
:1002900007DB312E05D2B81910F8200C08B1054340
:1002A000F1E7A80701D525F00405C4F81CA0002734
:1002B000C4F818A02A2E09D0304601F052FB38B3FA
:1002C00004EB8708303EC8F8186019E059F8041BA1
:1002D000204604EB87029161E1688847012F0646BA
:1002E00018D1E069002820DA25F020051DE0D8F8B3
:1002F000180000EB800006EB40003038C8F818000A
:100300002046E1688847064601F02BFB0028EED125
:10031000012F0AD02E2E08D12046E16888477F1C85
:100320000646022F45F02005C4DBA069002803DA49
:10033000404245F00105A061E80701D025F0100515
:10034000A6B1A6F14100192802D8203645F400656F
:100350004A463146204625604D46FFF701FF60B111
:10036000012807D0ED1D25F0070000E007E000F1AF
:10037000080978E705F1040975E730467AE7206A4D
:10038000BDE8F09F941800007047704770472DE952
:10039000F0470D4699469246044600F1240801684C
:1003A000880604D5E06921F01001216000E00120F9
:1003B000A84201DD471B00E00027A1697A1902EB82
:1003C0000900081AA0612078C00602D42046AFF3C5
:1003D0000080002608E0D4E901211AF806009047C1
:1003E000206A401C761C20624E45F4DB2078C00653
:1003F0000AD52046AFF3008006E0D4E90121302081
:100400009047206A401C2062381EA7F10107F4DCE7
:1004100007E0D4E9012118F805009047206A401C44
:100420002062281EA5F10105F3DC2046AFF3008011
:100430002078000602D50220BDE8F0870120FBE706
:10044000074B70B50D467B4400F011F80446284672
:1004500000F020F810B14FF0FF3070BD204670BDA5
:10046000BF15000001694A1C02610878704700B599
:100470008FB0CDE901310021059105497944CDE9DD
:10048000031011466846FFF7E3FE0FB000BD000001
:10049000E5FFFFFF007B00F08000704710B5424889
:1004A000542100F0E5F94148542100F0E1F94048B9
:1004B000542100F0DDF93F493B483C4A3F4B08607E
:1004C0003D490A603A491960531C0365481C106590
:1004D000012008653B48344A39A1784400F01CF9F2
:1004E00020B9384878440A3800F0BBF937482F4A19
:1004F00035A1784400F010F920B9344878440A381E
:1005000000F0AFF932482A4A2FA1784400F004F9EC
:1005100020B92F4878440A3800F0A3F94023224834
:10052000DC000021224600F0D4F820B125487844B0
:10053000543800F096F91D4822464023002100F06F
:10054000C8F820B121487844543800F08AF9184896
:1005500022461023002100F0BCF8002806D01C48D9
:100560007844BDE81040563800F07BB910BD104803
:1005700070B5006D20F001040B4800F043F90B4802
:1005800000F040F90A4800F03DF909E0206D20F044
:100590000105204600F036F9204600F073F82C469D
:1005A000002CF3D170BD0000080100205C01002088
:1005B000B001002034000020380000203C00002062
:1005C000720000002B1600007700000017160000D4
:1005D000031600000EB5CDE9000100F005FB029006
:1005E00069460120ABBE0EBD08B5694600900220E9
:1005F000ABBE08BD1FB58DE8070069460520ABBE40
:1006000004B010BD1FB58DE80F0069460620ABBED3
:10061000F6E708B5694600900920ABBE08BD1CB5D9
:10062000CDE9000169460A20ABBE1CBD704708B584
:10063000694600900C20ABBE08BD754600F040F93D
:10064000AE4605006946534620F00700854618B0BF
:1006500020B5FFF7B3FDBDE820404FF000064FF096
:1006600000074FF000084FF0000B21F00701AC46E7
:10067000ACE8C009ACE8C009ACE8C009ACE8C00906
:100680008D46704770B50446051F00F01FF90068DD
:10069000002C14BF446870BD002C18BFAC423CBF96
:1006A00020466468F8D301680A18AA4218BF45605A
:1006B00003D12A6805461144016028684119A14206
:1006C0001CBF6C6070BD6168696021680844286067
:1006D00070BD70B5C468A50713D0650211D4B2F51A
:1006E000807F09D0B2F5007F06D0B2F5806F08D1C7
:1006F000012300F1240106E05D1E6FF07F46B54244
:1007000001D3012070BD0161C361416024F47061B7
:100710001143C160002070BD2DE9F0410C46074631
:100720001646104600F06EF82078611C61280AD049
:10073000722802D077283CD102E00125002405E090
:100740000225042402E0082448F2020511F8010BF6
:100750002B2806D0622809D011F8010C74280AD081
:100760000BE045F0030544F00204EFE745F0040513
:1007700044F00104EAE744F0100438462146FFF74C
:1007800029FF411C15D00021316171604FF40071C7
:10079000F560F1617061200704D530460222002126
:1007A00000F00EF9306D40F0010030653046BDE8D4
:1007B000F0810020FBE72DE9F0410D460646104C84
:1007C000206DC10704D0410804D020F00104F7E7F0
:1007D00022460EE0542000F0C4F807000ED0206D31
:1007E00047F00101084354212065384600F040F8E5
:1007F0003A4629463046BDE8F0418DE70020D6E76D
:10080000080100202DE9F04704464FF000094FF0A1
:10081000FF37C568D4E90486A80707D0204600F052
:100820007FF93046FFF7E0FE002802DA3846BDE8DF
:10083000F087280502D54046FFF724FF4C212046CB
:1008400000F016F8206D20F0010020654846EEE724
:1008500010B50446AFF300802046BDE81040FFF716
:1008600099BC10B500F0A6F9BDE8104000F09CB9A5
:100870004FF0000200B5134694469646203922BF39
:10088000A0E80C50A0E80C50B1F12001BFF4F7AF84
:10089000090728BFA0E80C5048BF0CC05DF804EB66
:1008A000890028BF40F8042B08BF704748BF20F8D4
:1008B000022B11F0804F18BF00F8012B7047000089
:1008C000004870470402002070470000004870474D
:1008D0000C020020704770477047704738B50446D7
:1008E0000A4600206946AFF30080002808BF38BDE3
:1008F00002460099204600F0A4F9012038BD0120ED
:1009000000F0F3B9F8B5AFF30080054600200C46BF
:10091000102000BF0646A819A0420DD932466946EC
:100920000020AFF30080070008BF00F0DEF9009858
:10093000A04218BF0546C419FFF7C8FF0560074667
:10094000F01D20F007004619284600F073F9B44264
:1009500008BFF8BDA21B31463868BDE8F84000F07A
:1009600070B970B50646FFF7B1FF056806F10B00D8
:1009700020F00704B4429CBF002070BD2B466A687B
:10098000BAB11068A04210D304F1080188423CBFFC
:100990005068586007D35168101941601168091BED
:1009A000016058601460101D70BD13465268002A23
:1009B000E7D121462846FFF791FF0028DED170BD20
:1009C0002DE9F041044616460D464769007B800735
:1009D0002ED03846FFF71DFE50BB3EB3012E02D08D
:1009E000022E25D104E0204600F045F905441DE023
:1009F0003846FFF71CFEE168002841F01001E16075
:100A000005DA204600F058F80120BDE8F081C9035E
:100A10000BD56268E16A914200D81146A26911447F
:100A20002269891A814200DD08460544002D01DA59
:100A30000220EAE7E16A6068E268814206D2910337
:100A4000E06203D522F4003141F01002A6690027CC
:100A5000AE4213DCE16A814201D90B4600E0034655
:100A600003EB060C2369ACEB030CAC4506DD8142BD
:100A700001D98C4600E084469C4505D1A7602760DB
:100A800042F02000A5620DE0AD1BE669AE1B81427D
:100A9000A66000D90846C01A281A2060581960605C
:100AA00022F0200003490840E060002084F84870EC
:100AB000ABE70000BFCFD7FFC16821F4001141F0C0
:100AC0008001C16000218160016070472DE9F0471D
:100AD000814614460E464FF0FF383248D5685769B4
:100AE000054209D03846A169FFF799FD002811DBBE
:100AF0002C48C0430540E5602B46324649463846FF
:100B0000FFF778FDA16920F00042B21A11440028D5
:100B1000A16103D02046FFF7CFFF4046BDE8F08734
:100B200070B504460569C06A6168884200D8084605
:100B3000E16821F42011E160C90312D5A84208D070
:100B40002246411B2846FFF7C1FF10B14FF0FF308E
:100B500070BD0020E562C4E90150E06820F48030F7
:100B6000E060002070BD10B50446C06820F0200091
:100B7000E060A16AA06988420DD02046FFF7D0FF4F
:100B8000E06820F4405040F01000E060A06AA061EE
:100B90002069E062606044F24001E0688843E06000
:100BA00010BD000010000200002801D000F03CB889
:100BB0007047000010B5014602A000F07DF801204A
:100BC00010BD000053494752545245443A205265E3
:100BD0006469726563743A2063616E2774206F7074
:100BE000656E3A200000000010B5431C02E010F8CA
:100BF000011B71B18107FAD14FF0013202C88C1A82
:100C00008C4314EAC211F9D0C01A0A0603D0C01EE0
:100C100010BDC01A10BD0A0401D0801E10BD09020B
:100C2000FCD0401E10BD000001491820ABBEFEE7FD
:100C30002600020000210160C0E901107047102069
:100C40007047034640688C46002818BF88423CBF66
:100C500003464068F8D318681844884207D00CF15E
:100C6000030020F00700001D411A521A0146081D1A
:100C70000A60FFF707BD10B50146C268900703D0B0
:100C8000900607D5886A0AE000F03EF8012101606D
:100C9000881E10BD8B69486818440B69C01A91F80A
:100CA00048301BB191F84910401A10BD1103FCD512
:100CB0000028FADD401E10BD70B505460C460A201E
:100CC00000E06D1C00F018F835B128780028F8D144
:100CD00002E0641C00F010F814B120780028F8D16C
:100CE000BDE870400A2000F007B810B500F010F819
:100CF000BDE81040FFF758BF08B569468DF8000001
:100D00000320ABBE08BD000000487047040200206D
:100D100010B5012805D0002103A0FFF7CDFF012069
:100D200010BD09A1F8E7000053494752544D454D05
:100D30003A204F7574206F662068656170206D657C
:100D40006D6F7279000000003A2048656170206D77
:100D5000656D6F727920636F72727570746564006F
:100D600000BFFEE7704700002DE9F0410024002697
:100D7000002530E04FF480711B4800F036F901285F
:100D800029D100F043F90446FA2C00DB24E0C82CFA
:100D900003DBFA2C01DA01260AE03C2C03DB5A2C97
:100DA00001DA012704E00A2C02DB322C00DA0027EA
:100DB000012E0ED10D48006840000C49086008461D
:100DC000006838440860202D03DB012008490870C2
:100DD00002E0681CC5B2CDE700BF4FF4807000F0A0
:100DE00009F8BDE8F081000000080140280000205B
:100DF0002C000020014908607047000014040140E5
:100E0000002123498279002A3AD00A4612680368F1
:100E10009A430B461A600A1D126803689A430B1D19
:100E20001A60027911440A6803681A430A60184A72
:100E30000832126803689A43154B08331A601A1D6A
:100E4000126803689A43124B0C331A604279102AD5
:100E50000ED11A1F126803681A430D4B08331A602B
:100E60001A1D126803681A43094B0C331A600DE00F
:100E70000749427911440A6803681A430A6005E089
:100E8000027911440A6803689A430A6070470000B7
:100E90000004014030B500228B071C0F0F2303FA1A
:100EA00004F20B4B8C1053F824309343084C8D10F4
:100EB00044F8253023468C1053F824308C07240F37
:100EC00000FA04F42343024C8D1044F8253030BD61
:100ED000080001402DE9F0410246002500260020CF
:100EE00000230024002791F803C00CF00F0591F8AF
:100EF00003C00CF0100CBCF1000F03D091F802C03D
:100F00004CEA050591F800C0BCF1000F31D014681F
:100F100000202BE04FF0010C0CFA00F3B1F800C0F8
:100F20000CEA03069E4220D183004FF00F0C0CFA0E
:100F300003F7BC4305FA03FC4CEA040491F803C030
:100F4000BCF1280F06D14FF0010C0CFA00FCC2F8DE
:100F500014C00AE091F803C0BCF1480F05D14FF06E
:100F6000010C0CFA00FCC2F810C0401C0828D1D3B8
:100F70001460B1F800C0BCF1FF0F34DD54680020EC
:100F80002EE000F1080C4FF0010808FA0CF3B1F85C
:100F900000C00CEA03069E4221D183004FF00F0CE3
:100FA0000CFA03F7BC4305FA03FC4CEA040491F87D
:100FB00003C0BCF1280F05D100F1080C08FA0CF8A9
:100FC000C2F8148091F803C0BCF1480F07D100F1BA
:100FD000080C4FF0010808FA0CF8C2F81080401C09
:100FE0000828CED35460BDE8F08102460020936803
:100FF0000B400BB1012000E00020704701617047F9
:101000000AB1016100E041617047000010B50024A1
:1010100008E0601CC4B2142000F0D0FCFA2C01DB04
:10102000204610BD4FF480710348FFF7DEFF012812
:10103000EFD02046F5E700000008014000BFFEE7C2
:101040001FB50121052000F011F94FF48070ADF8B3
:101050000C0048208DF80F0003A91448FFF73AFF51
:1010600008210020FFF716FF4FF48070FFF7C2FE43
:101070004FF48070019000208DF808000C208DF84E
:10108000090001208DF80A0001A8FFF7B9FE17201A
:101090008DF8000000208DF8010001208DF802007D
:1010A0008DF80300684600F09DF81FBD0008014060
:1010B00008B50121102000F0D9F80121042000F02A
:1010C000D5F80121042000F0D1F80121042000F01E
:1010D000CDF80121042000F0C9F80121042000F01E
:1010E000C5F80121042000F0C1F80121042000F01E
:1010F000BDF80121042000F0B9F84FF40050ADF81C
:10110000000010208DF8030003208DF802006946CE
:101110003048FFF7DFFE4FF400512E48FFF76EFF17
:101120000120ADF8000069462B48FFF7D3FE0121EE
:101130002948FFF763FF0220ADF800006946264802
:10114000FFF7C8FE02212448FFF758FF0420ADF83E
:10115000000069462048FFF7BDFE04211E48FFF746
:101160004DFF0820ADF8000069461B48FFF7B2FEAE
:1011700008211948FFF742FF1020ADF8000069462A
:101180001548FFF7A7FE10211348FFF737FF20206F
:10119000ADF8000069461048FFF79CFE20210E487C
:1011A000FFF72CFF4020ADF8000069460A48FFF722
:1011B00091FE40210848FFF721FF8020ADF8000094
:1011C00069460548FFF786FE80210348FFF716FFB2
:1011D00008BD0000001001400008014000BFFEE70C
:1011E0007047000070B5002100230F22C47804B3BB
:1011F000154C246804F4E064C4F5E064210AC1F1EC
:101200000403CA40447804FA03F18478144021436B
:1012100009010E4C0678A155047804F01F0501243D
:10122000AC4005786D11AD0005F1E025C5F8004131
:1012300009E0047804F01F050124AC40044D067851
:10124000761145F8264070BD0CED00E000E400E0AA
:1012500080E100E002490143024A1160704700004A
:101260000000FA050CED00E07047000029B1064AC5
:1012700092690243044B9A6104E0034A92698243F3
:10128000014B9A61704700000010024030B5002108
:101290000022002400232D4D6D6805F00C0121B1C2
:1012A000042905D0082923D105E0294D056022E055
:1012B000274D05601FE0254D6D6805F47012234D24
:1012C0006D6805F48034022505EB92421CB9214D6E
:1012D000554305600BE01D4D6D6805F400351DB1EB
:1012E0001C4D5543056002E0194D5543056002E071
:1012F000174D056000BF00BF144D6D6805F0F0018B
:101300000909154D6B5C0568DD4045600F4D6D6842
:1013100005F4E061090A104D6B5C4568DD408560AD
:101320000A4D6D6805F46051C90A0B4D6B5C456848
:10133000DD40C560054D6D6805F44041890B074DE2
:101340006B5CC568B5FBF3F5056130BD001002406C
:1013500000127A0000093D0000000020100000206B
:101360002DE9F04105460E460024701EC7B23C46EA
:101370006EE0082C5DD2DFE804F0040E1925303B46
:1013800047520120344908603449C1F8900132497C
:10139000083108604DE001202F4908602F49C1F84D
:1013A000900100202C490831086042E001202A49C0
:1013B000086000202949C1F8900101202649083120
:1013C000086036E001202449086000202349C1F864
:1013D00090012149083108602BE000201E49086077
:1013E00001201E49C1F890011B490831086020E026
:1013F00000201949086001201849C1F89001002017
:1014000015490831086014E00020134908601349A9
:10141000C1F89001012010490831086009E000205E
:101420000D4908600D49C1F890010B490831086069
:1014300000BF00BFE01B295C012000F011F8012073
:1014400000F096FA0021012000F00AF8601CC4B2F6
:10145000082C8EDBBDE8F0818C8121420080214286
:101460002DE9F04106460D46F7B2002414E005F0E0
:10147000010038B107FA04F081B201220848FFF7F1
:10148000BFFD06E007FA04F081B200220448FFF72E
:10149000B7FD6D10601CC4B2082CE8DBBDE8F0811C
:1014A00000080140704710B500F002F810BD0000C0
:1014B0000CB50020019000903348006840F4803063
:1014C0003149086000BF3048006800F400300090E7
:1014D0000198401C0190009818B90198B0F5A06FD0
:1014E000F1D12948006800F4003010B101200090CB
:1014F00001E0002000900098012843D123480068B3
:1015000040F01000214908600846006820F0030000
:1015100008600846006840F0020008601A48406809
:10152000194948600846406848600846406840F4E9
:10153000806048600846406820F47C104860084697
:10154000406840F4E81048600846006840F0807049
:10155000086000BF0C48006800F000700028F9D057
:101560000948406820F00300074948600846406881
:1015700040F00200486000BF0348406800F00C00E3
:101580000828F9D10CBD00000010024000200240E4
:10159000042808D14FF0E021096941F004014FF01F
:1015A000E022116107E04FF0E021096921F0040118
:1015B0004FF0E022116170477047000010B50446FB
:1015C0006FF00400FFF7E4FFE11704EB5171C1F382
:1015D000C701074A11701046007800EB4001C1EBCB
:1015E000C0104FF6FF7101EAC0000249088010BD2B
:1015F0002E0000203000002010B51348006840F095
:1016000001001149086008464068104908400E4929
:101610004860084600680E4908400B4908600846C3
:10162000006820F4802008600846406820F4FE002E
:1016300048604FF41F008860FFF735FF4FF00060EF
:101640000449086010BD0000001002400000FFF8CF
:10165000FFFFF6FE08ED00E010B540F225511D48F1
:1016600000F0B8F810B31B4800F070F9C4B21A4883
:10167000008800F40040C8B91748008800F4804092
:1016800060B10A2C03D000201349088020E01248E2
:10169000008840F400401049088019E00D2C06D164
:1016A0000D48008840F480400B49088010E00A484B
:1016B0000088C0F30D0009490C5407480088401CFD
:1016C0000549088008460088C72801DD00200880F9
:1016D00010BD000000380140320000204000002012
:1016E00010B586B0044601210420FFF7BFFD01219B
:1016F0008803FFF7BBFD4FF40070ADF81400032022
:101700008DF8160018208DF8170005A91E48FFF760
:10171000E1FB4FF48060ADF8140004208DF8170051
:1017200005A91948FFF7D6FB01940020ADF8080081
:10173000ADF80A00ADF80C00ADF810000C20ADF8C3
:101740000E0001A9114800F095F801210F4800F0A2
:1017500028F840210D4800F01BF8012240F22551E5
:101760000A4800F061F825208DF8000003208DF86C
:1017700001008DF8020001208DF803006846FFF794
:1017800031FD06B010BD00000008014000380140E6
:1017900001F40072B2F5007F00D100BFCA4302809D
:1017A000704721B1828942F40052828104E082892B
:1017B0004DF6FF731A408281704702460020B1F552
:1017C000007F00D100BF13880B400BB1012000E067
:1017D0000020704770B50246002400230025002039
:1017E00040F66A16B14200D100BFC1F3421501F0C4
:1017F0001F03012606FA03F3012D02D19689334017
:1018000006E0022D02D1168A334001E0968A334069
:101810000C12012606FA04F41688344013B10CB1F8
:10182000012000E0002070BDF0B503460024002632
:101830000025002040F66A17B94200D100BF1846C3
:10184000C1F3421401F01F06012707FA06F5012C27
:1018500001D10C3004E0022C01D1103000E0143032
:101860001AB107682F43076002E00768AF430760BB
:10187000F0BD00002DE9F04786B005460E46002475
:10188000A24600BFA1460027B08900B100BF2F4685
:101890002C8A4CF6FF700440F08804432C82AC89FB
:1018A0004EF6F3100440B08831890843718908432B
:1018B0000443AC81AC8A4FF6FF400440B089044336
:1018C000AC8201A8FFF7E2FC1F48874202D1DDF895
:1018D00010A001E0DDF80CA0A88900F4004040B1A0
:1018E0000AEBCA0000EB0A1031684900B0FBF1F8BE
:1018F00007E00AEBCA0000EB0A1031688900B0FB70
:10190000F1F86420B8FBF0F004012009642101FB28
:101910001089A88900F4004040B1322000EBC900D2
:10192000B0FBF1F000F00700044308E0322000EBC8
:1019300009106421B0FBF1F000F00F0004432C818A
:1019400006B0BDE8F08700000038014001468888F5
:10195000C0F308007047C1F308028280704700BFDF
:10196000FEE730380A2801D2012070470020704776
:101970000146114A12884A434FF0E0235A6100227F
:101980009A611A46126942F001021A6100BF4FF0D3
:10199000E022106900F001021AB100F48032002A3E
:1019A000F5D04FF0E022126922F001024FF0E0235F
:1019B0001A6100229A617047300000200146114AE6
:1019C00012784A434FF0E0235A6100229A611A4686
:1019D000126942F001021A6100BF4FF0E022106963
:1019E00000F001021AB100F48032002AF5D04FF065
:1019F000E022126922F001024FF0E0231A61002276
:101A00009A6170472E00002070B504460D46E1B281
:101A10000548FFF7A0FF00BF80210348FFF7CDFE78
:101A20000028F9D0204670BD0038014008B50024D8
:101A30004820FFF7C3FD4FF4A060FFF70BFC4FF405
:101A4000E130FFF74DFEFFF733FBFFF7F9FA2EE029
:101A50001748007801280ED1002015490870154854
:101A6000016815A0FEF7BCFB12480088C0F30724EC
:101A70000020104908602046E11704EB117109119C
:101A8000124A515C8DF80010E11704EB1171091135
:101A9000A4EB0111515C8DF8011076208DF8020045
:101AA00006216846FFF75CFC0A20FFF761FFCFE7DD
:101AB0002C00002028000020BAECCDE2BDD3CAD50E
:101AC000C2EB2025302E38580D0A000014000020EB
:101AD0003031323334353637383941424344454664
:101AE000403058003031323334353637383961625E
:101AF0006364656640307800040000080000000060
:101B00000000000200010000103A7474003A74747E
:101B1000003A747400000000381B00080000002028
:101B20004000000028010008781B00084000002049
:101B3000280800004401000800000000010203041E
:101B40000102030406070809020406083F065B4F6A
:101B5000666D7D077F6F777C395E797100000000CC
:101B60000000000000000000000000000000000075
:081B700000000000000000006D
:04000005080000ED02
:00000001FF
