:020000040800F2
:10000000A80A002091010008D3060008CB060008CA
:10001000CF06000855050008270D00080000000065
:10002000000000000000000000000000250900089A
:10003000590500080000000045070008110A0008E3
:10004000AB010008AB010008AB010008AB010008E0
:10005000AB010008AB010008AB010008AB010008D0
:10006000AB010008AB010008AB010008AB010008C0
:10007000AB010008AB010008AB010008AB010008B0
:10008000AB010008AB010008AB010008AB010008A0
:10009000AB010008AB010008AB010008AB01000890
:1000A000AB010008AB010008AB010008AB01000880
:1000B000AB010008AB010008AB010008AB01000870
:1000C000AB010008AB010008AB010008AB01000860
:1000D000AB010008750A00080D0B0008AB01000811
:1000E000AB010008AB010008AB01000800F002F80A
:1000F00000F03FF80AA090E8000C82448344AAF183
:100100000107DA4501D100F034F8AFF2090EBAE880
:100110000F0013F0010F18BFFB1A43F0010318473B
:100120003010000050100000103A24BF78C878C189
:10013000FAD8520724BF30C830C144BF04680C60ED
:10014000704700000023002400250026103A28BF35
:1001500078C1FBD8520728BF30C148BF0B60704739
:10016000642900F04D80002070471FB51FBD10B5F9
:1001700010BD00F0C0F91146FFF7F7FF00F0ACFF2B
:1001800000F0DEF903B4FFF7F2FF03BC00F0D4FD8A
:100190000948804709480047FEE7FEE7FEE7FEE71B
:1001A000FEE7FEE7FEE7FEE7FEE7FEE70448054957
:1001B000054A064B70470000150A0008ED000008CC
:1001C000A8040020A80A0020A8060020A8060020F5
:1001D000704700000FB41CB5084B06AA7B44694663
:1001E0000090059800F06FF904460020694600F081
:1001F0007DF920461CBC5DF814FB00000D030000D7
:100200002DE9F0410646002410687529314616A5EF
:1002100010D0AFF30080002802DA404213A507E0B7
:1002200031688A0701D512A502E0490704D511A556
:10023000012401E0AFF3008000210A2206F1240727
:1002400009E0B0FBF2FCB0FBF2F302FB1C00303023
:1002500078541846491C0028F3D123462A463046D4
:10026000BDE8F04100F0D0B8000000002D00000013
:100270002B000000200000002DE9F05F89460446B5
:100280004FF0000ADFF874B1FB44C0F820A020460C
:10029000E1688847002874D0252806D0D4E90121D8
:1002A0009047206A401C2062F1E700265F46204606
:1002B000E16888472028054607DB312D05D27819EB
:1002C00010F8200C08B10643F1E7B00701D526F07D
:1002D0000406C4F81CA00027C4F818A02A2D09D0D1
:1002E000284600F022FD38B304EB8708303DC8F8FB
:1002F000185019E059F8041B204604EB870291615D
:10030000E1688847012F054618D1E069002820DA06
:1003100026F020061DE0D8F8180000EB800005EB61
:1003200040003038C8F818002046E1688847054684
:1003300000F0FBFC0028EED1012F0AD02E2D08D1B1
:100340002046E16888477F1C0546022F46F02006BC
:10035000C4DBA069002803DA404246F00106A06130
:10036000F00701D026F010066C2D0BD0682D09D0B7
:100370004C2D39D06A2D35D0742D35D07A2D33D00F
:1003800016E038E0E1682F4620468847B842054627
:1003900009D16C2F26D04FF48060E16806432046D7
:1003A0008847054604E06C2F1AD04FF4807006434E
:1003B0000DB3A5F14100192802D8203546F4006696
:1003C0004A462946204626604E46FFF7C9FE80B1C0
:1003D00001280BD0F61D26F0070000F1080956E7AA
:1003E0004020E4E78020D8E70020D6E706F10409A2
:1003F0004DE7284652E7206ABDE8F09FB00E0000A6
:1004000070477047704770472DE9F0470D46994691
:100410009246044600F124080168880604D5E06984
:1004200021F01001216000E00120A84201DD471BFE
:1004300000E00027A1697A1902EB0900081AA061FF
:100440002078C00602D42046AFF30080002608E0E2
:10045000D4E901211AF806009047206A401C761C56
:1004600020624E45F4DB2078C0060AD52046AFF363
:10047000008006E0D4E9012130209047206A401C2A
:100480002062381EA7F10107F4DC07E0D4E901215E
:1004900018F805009047206A401C2062281EA5F12C
:1004A0000105F3DC2046AFF300802078000602D57A
:1004B0000220BDE8F0870120FBE7000001694A1C2B
:1004C00002610878704700B58FB0CDE90131002195
:1004D000059105497944CDE9031011466846FFF7B7
:1004E000CBFE0FB000BD0000E5FFFFFF0A6802F879
:1004F000010B0A607047754600F028F8AE4605000B
:100500006946534620F00700854618B020B5FFF72E
:100510004DFEBDE820404FF000064FF000074FF0C1
:1005200000084FF0000B21F00701AC46ACE8C00911
:10053000ACE8C009ACE8C009ACE8C0098D4670471A
:100540000446AFF300802046FFF71CFE00487047CA
:100550004804002000BFFEE77047000010B50021EE
:100560008E2000F05BFD002407E0074A115D074A7A
:10057000105D00F053FD601CC4B2072CF5DB802138
:100580008E2000F04BFD10BD3F0000203800002001
:100590002DE9F0410246002500260020002300241A
:1005A000002791F803C00CF00F0591F803C00CF080
:1005B000100CBCF1000F03D091F802C04CEA050505
:1005C00091F800C0BCF1000F31D0146800202BE07E
:1005D0004FF0010C0CFA00F3B1F800C00CEA03066E
:1005E0009E4220D183004FF00F0C0CFA03F7BC435E
:1005F00005FA03FC4CEA040491F803C0BCF1280F8F
:1006000006D14FF0010C0CFA00FCC2F814C00AE04D
:1006100091F803C0BCF1480F05D14FF0010C0CFA62
:1006200000FCC2F810C0401C0828D1D31460B1F8F7
:1006300000C0BCF1FF0F34DD546800202EE000F153
:10064000080C4FF0010808FA0CF3B1F800C00CEAEE
:1006500003069E4221D183004FF00F0C0CFA03F7E2
:10066000BC4305FA03FC4CEA040491F803C0BCF156
:10067000280F05D100F1080C08FA0CF8C2F8148014
:1006800091F803C0BCF1480F07D100F1080C4FF0FE
:10069000010808FA0CF8C2F81080401C0828CED3D4
:1006A0005460BDE8F0810246002093680B400BB116
:1006B000012000E0002070474161704701617047F0
:1006C0000AB1016100E04161704700BFFEE700BF71
:1006D000FEE7704770B5002100230F22C47804B3F1
:1006E000154C246804F4E064C4F5E064210AC1F107
:1006F0000403CA40447804FA03F184781440214387
:1007000009010E4C0678A155047804F01F05012458
:10071000AC4005786D11AD0005F1E025C5F800414C
:1007200009E0047804F01F050124AC40044D06786C
:10073000761145F8264070BD0CED00E000E400E0C5
:1007400080E100E07047000029B1064AD269024307
:10075000044BDA6104E0034AD2698243014BDA6157
:10076000704700000010024029B1064A9269024316
:10077000044B9A6104E0034A92698243014B9A61F7
:10078000704700000010024030B500210022002414
:1007900000232D4D6D6805F00C0121B1042905D011
:1007A000082923D105E0294D056022E0274D056089
:1007B0001FE0254D6D6805F47012234D6D6805F43A
:1007C0008034022505EB92421CB9214D554305604A
:1007D0000BE01D4D6D6805F400351DB11C4D5543F2
:1007E000056002E0194D5543056002E0174D0560B4
:1007F00000BF00BF144D6D6805F0F0010909154DEB
:100800006B5C0568DD4045600F4D6D6805F4E06187
:10081000090A104D6B5C4568DD4085600A4D6D68C6
:1008200005F46051C90A0B4D6B5C4568DD40C5603D
:10083000054D6D6805F44041890B074D6B5CC5683B
:10084000B5FBF3F5056130BD0010024000127A00DF
:1008500000093D00000000201000002010B586B007
:10086000044601214804FFF76FFF01210420FFF730
:100870007BFF0420ADF8140018208DF8170003202A
:100880008DF8160005A92548FFF782FE0820ADF86F
:10089000140004208DF8170005A92048FFF778FE02
:1008A00001940020ADF80800ADF80A00ADF80C0086
:1008B000ADF810000C20ADF80E0001A9184800F0AA
:1008C000BDF925208DF8000003208DF801000220DD
:1008D0008DF8020001208DF803006846FFF7FAFE4C
:1008E000012240F225510E4800F082F901210C4806
:1008F00000F03BF90220ADF8140010208DF817002D
:1009000003208DF8160005A90448FFF741FE0221D7
:100910000248FFF7D3FE06B010BD000000080140FA
:1009200000440040704710B500F002F810BD000010
:100930000CB50020019000903348006840F48030EE
:100940003149086000BF3048006800F40030009072
:100950000198401C0190009818B90198B0F5A06F5B
:10096000F1D12948006800F4003010B10120009056
:1009700001E0002000900098012843D1234800683E
:1009800040F01000214908600846006820F003008C
:1009900008600846006840F0020008601A48406895
:1009A000194948600846406848600846406840F475
:1009B000806048600846406820F47C104860084623
:1009C000406840F4E81048600846006840F08070D5
:1009D000086000BF0C48006800F000700028F9D0E3
:1009E0000948406820F0030007494860084640680D
:1009F00040F00200486000BF0348406800F00C006F
:100A00000828F9D10CBD000000100240002002406F
:100A10007047000010B51348006840F0010011490C
:100A2000086008464068104908400E49486008467A
:100A300000680E4908400B4908600846006820F429
:100A4000802008600846406820F4FE0048604FF4AB
:100A50001F008860FFF767FF4FF0006004490860DF
:100A600010BD0000001002400000FFF8FFFFF6FE7E
:100A700008ED00E010B540F225511E4800F08EF858
:100A8000002836D01B4800F045F904461A4908688A
:100A9000411C194B196019490C5401201849086070
:100AA0000D2C01D00A2C02D10020134908600D2C16
:100AB0000AD00A2C08D0202C06D00F490868411C07
:100AC0000D4B19600D490C540E480068012805D1E2
:100AD000084800F01FF90C49087002E000200A499C
:100AE0000870054800681E2802DB002002490860E3
:100AF00000BF10BD00380140180000204800002051
:100B0000140000201C0000202400002010B540F23A
:100B100025510E4800F042F8B0B10D480088FF287A
:100B200002D900200A4908800848001D0088C1B287
:100B3000074802880088401C054B188005488154EE
:100B40002021024800F008F810BD000000440040D9
:100B5000300000204803002001F40072B2F5007F4D
:100B600000D100BFCA430280704721B1828942F49C
:100B70000052828104E082894DF6FF731A4082811F
:100B8000704702460020B1F5007F00D100BF1388F6
:100B90000B400BB1012000E00020704770B5024609
:100BA000002400230025002040F66A16B14200D13F
:100BB00000BFC1F3421501F01F03012606FA03F33B
:100BC000012D02D19689334006E0022D02D1168A0A
:100BD000334001E0968A33400C12012606FA04F4F1
:100BE0001688344013B10CB1012000E0002070BD24
:100BF000F0B50346002400260025002040F66A17C1
:100C0000B94200D100BF1846C1F3421401F01F06DB
:100C1000012707FA06F5012C01D10C3004E0022C63
:100C200001D1103000E014301AB107682F4307607B
:100C300002E00768AF430760F0BD00002DE9F04710
:100C400086B005460E460024A24600BFA1460027F6
:100C5000B08900B100BF2F462C8A4CF6FF700440CB
:100C6000F08804432C82AC894EF6F3100440B0881F
:100C700031890843718908430443AC81AC8A4FF63B
:100C8000FF400440B0890443AC8201A8FFF77CFD1B
:100C90001F48874202D1DDF810A001E0DDF80CA06A
:100CA000A88900F4004040B10AEBCA0000EB0A102A
:100CB00031684900B0FBF1F807E00AEBCA0000EB2D
:100CC0000A1031688900B0FBF1F86420B8FBF0F03D
:100CD00004012009642101FB1089A88900F4004067
:100CE00040B1322000EBC900B0FBF1F000F007008A
:100CF000044308E0322000EB09106421B0FBF1F05E
:100D000000F00F0004432C8106B0BDE8F08700001E
:100D10000038014001468888C0F308007047C1F3DD
:100D200008028280704700BFFEE730380A2801D2EF
:100D3000012070470020704700BF704700B5034690
:100D400003E04FF47A7000F005F81800A3F10103F6
:100D5000F7D100BD00EBC001C9004FF0E0225161A6
:100D6000002191610521116100BF4FF0E021096967
:100D700001F480310029F8D004214FF0E022116104
:100D80007047000038B50446012C0DD14020ADF865
:100D9000000010208DF8030003208DF80200694642
:100DA0000748FFF7F5FB09E04020ADF800004820B8
:100DB0008DF8030069460248FFF7EAFB38BD0000E2
:100DC000000C014008B501210820FFF7CDFCA02050
:100DD000ADF8000010208DF8030003208DF802000C
:100DE00069460248FFF7D4FB08BD0000000C014033
:100DF0002DE9F0410546812D01DB8F2D02DDFF201D
:100E0000BDE8F08180213B48FFF756FC202139489E
:100E1000FFF752FC0120FFF7B5FF052000F086F92F
:100E200080213448FFF74AFC00241AE02E46264170
:100E300006F0010240212F48FFF742FC022000F09B
:100E400075F920212B48FFF739FC022000F06EF9DC
:100E500020212848FFF730FC022000F067F9601CD1
:100E6000C4B2082CE2DB0020FFF78CFF022000F068
:100E70005DF9002418E040211E48FFF714FC0646E7
:100E800006FA04F03843C7B220211A48FFF716FCCF
:100E9000022000F04BF920211648FFF70DFC02203C
:100EA00000F044F9601CC4B2082CE4DB8021114836
:100EB000FFF702FC022000F039F90120FFF762FF82
:100EC000022000F033F920210A48FFF7F7FB022047
:100ED00000F02CF940210748FFF7EEFB022000F05C
:100EE00025F940210348FFF7E9FB022000F01EF935
:100EF000384685E7000C014030B58FB005468D209F
:100F0000FFF776FF0446FF2C01D10FB030BD04F08F
:100F10000F008DF82D0020118DF82C008920FFF78F
:100F200067FF0446FF2C00D1EFE704F00F008DF8B7
:100F30002F0020118DF82E008720FFF759FF04465F
:100F4000FF2C00D1E1E704F00F008DF831002011F3
:100F50008DF830008520FFF74BFF0446FF2C00D1B1
:100F6000D3E704F00F008DF8330020118DF8320024
:100F70008320FFF73DFF0446FF2C00D1C5E704F0B6
:100F80000F008DF8350020118DF834008120FFF717
:100F90002FFF0446FF2C00D1B7E704F00F008DF8B7
:100FA000370020118DF836009DF837009DF8361077
:100FB0009DF835209DF83430CDE90632CDE9081092
:100FC0009DF833109DF832209DF831009DF83030A7
:100FD000CDE90230CDE904219DF82F009DF82E10B7
:100FE000CDE900109DF82D309DF82C2002A1284657
:100FF000FFF7F0F8002088E73230256425642D25BE
:101000006425642D2564256420256425643A2564BF
:1010100025643A25642564200000000070B505466B
:101020000E4680212B48FFF747FB022000F07EF898
:1010300020212848FFF740FB022000F077F88021AC
:101040002448FFF73BFB022000F070F80120FFF777
:1010500099FE022000F06AF8002416E005F0010273
:1010600040211C48FFF72CFB6D1020211948FFF789
:1010700025FB022000F05AF820211648FFF71CFB40
:10108000022000F053F8601CC4B2082CE6DB0024F8
:1010900016E006F0010240210E48FFF711FB761022
:1010A00020210C48FFF70AFB022000F03FF8202126
:1010B0000848FFF701FB022000F038F8601CC4B2BA
:1010C000082CE6DB80210348FFF7F6FA022000F047
:1010D0002DF870BD000C014086B000244FF416506E
:1010E000FFF7BCFBFFF76EFEFFF738FA1AE0684621
:1010F000FFF702FF05468DB900240DE01DF804102E
:101100000948FFF70CFE00BF40210748FFF739FDF3
:101110000028F9D0601CC4B2142CEFDB4FF47A70B5
:10112000FFF70CFEE3E700000044004000E000BFD2
:10113000011EA0F10102D0B2F9DC704704000008E2
:10114000000000000000000200010000100000008C
:10115000701100080000002048000000280100086D
:10116000B811000848000020600A0000440100088F
:10117000000000000102030401020304060708093D
:10118000020406080000000000000000010000004A
:10119000000000000000000001000000000000004E
:1011A000000000000000000080828486888A8C0095
:0811B0003017020501190000CF
:04000005080000ED02
:00000001FF
