:020000040800F2
:10000000C80A002089010008E9050008E105000888
:10001000E5050008390200089B10000800000000F8
:10002000000000000000000000000000750700084C
:100030003D020008000000005D0600088908000875
:10004000A3010008A3010008A3010008A301000800
:10005000A3010008A3010008A3010008A3010008F0
:10006000A3010008A3010008A3010008A3010008E0
:10007000A3010008A3010008A3010008A3010008D0
:10008000A3010008A3010008A3010008A3010008C0
:10009000A3010008A3010008A3010008D102000881
:1000A000A3010008A3010008A3010008A3010008A0
:1000B000A3010008A3010008A3010008A301000890
:1000C000A3010008A3010008A3010008A301000880
:1000D000A30100084D0D0008810E0008A3010008CF
:1000E000A3010008A3010008A301000800F002F822
:1000F00000F03AF80AA090E8000C82448344AAF188
:100100000107DA4501D100F02FF8AFF2090EBAE885
:100110000F0013F0010F18BFFB1A43F0010318473B
:1001200088100000A8100000103A24BF78C878C1D9
:10013000FAD8520724BF30C830C144BF04680C60ED
:10014000704700000023002400250026103A28BF35
:1001500078C1FBD8520728BF30C148BF0B60704739
:100160001FB51FBD10B510BD00F033F81146FFF7E5
:10017000F7FF00F0EDFF00F051F803B4FFF7F2FFD6
:1001800003BC00F0E3FF000009488047094800472E
:10019000FEE7FEE7FEE7FEE7FEE7FEE7FEE7FEE737
:1001A000FEE7FEE704480549054A064B7047000094
:1001B0008D080008ED000008C8040020C80A0020CF
:1001C000C8060020C8060020704770477047704777
:1001D0007047754600F02CF8AE4605006946534658
:1001E00020F00700854618B020B5FFF7DBFFBDE81B
:1001F00020404FF000064FF000074FF000084FF08E
:10020000000B21F00701AC46ACE8C009ACE8C0091E
:10021000ACE8C009ACE8C0098D46704710B504468B
:10022000AFF300802046BDE81040FFF7A6BF0000F6
:10023000004870476404002000BFFEE770470000DC
:1002400010B56FF0040000F00BFB0A4800680A4983
:10025000B0FBF1F0094908700846007800EB400156
:10026000C1EBC0104FF6FF7101EAC00004490880DD
:1002700010BD00000000002000127A0036000020AF
:10028000380000200146114A12884A434FF0E0230B
:100290005A6100229A611A46126942F001021A61FB
:1002A00000BF4FF0E022106900F001021AB100F423
:1002B0008032002AF5D04FF0E022126922F00102CC
:1002C0004FF0E0231A6100229A6170473800002045
:1002D00010B5202000F082F800286BD0202000F01C
:1002E00077F82021344800F072F938B10021334802
:1002F00000F0ABFC0020324908805BE02F4800F0A2
:1003000042FC2F49088008460088B0F5C87F0BDD05
:1003100008460088B0F5FA7F06DA012029490870FE
:1003200000202949086045E026480078002841D08F
:100330002348008828280CDD21480088482808DA4E
:1003400021480068400020490860084600680860AD
:1003500030E01B48008896280EDD19480088BA282E
:100360000ADA194800684000174908600846006822
:1003700040F0010008601DE011480088B0F57A6F78
:1003800003DC0F480088DC2814DA00200D490870CF
:100390000D480068000E0D4908700B480068000CFD
:1003A000487009480088000A887007480078C870BB
:1003B0000120087110BD0000001801400004004039
:1003C0002E000020340000203000002028000020F3
:1003D00001490860704700001404014001460020F4
:1003E0000022074B1B6803EA0102054B14331B680C
:1003F0000B4013B10AB1012000E00020704700005B
:100400000004014010B5034800F0BDFB04B22046D3
:1004100010BD00000004004000B587B0012102209B
:1004200000F01EF90121042000F02AF948208DF87F
:100430000F00C020ADF80C0003208DF80E0003A9BA
:100440001B4800F039F80020ADF81600ADF8120096
:100450004FF6FF70ADF814000020ADF810008DF8D5
:10046000180004A9134800F01FFC684600F0E4FBE4
:100470000020ADF800000F20ADF8080069460D48D7
:1004800000F084FB0420ADF800000F20ADF8080058
:100490006946084800F07AFB00231A460321054804
:1004A00000F050FB0121034800F040FB07B000BD05
:1004B00000080140000400402DE9F04102460025FB
:1004C0000026002000230024002791F803C00CF030
:1004D0000F0591F803C00CF0100CBCF1000F03D015
:1004E00091F802C04CEA050591F800C0BCF1000F7C
:1004F00031D0146800202BE04FF0010C0CFA00F30F
:10050000B1F800C00CEA03069E4220D183004FF0F0
:100510000F0C0CFA03F7BC4305FA03FC4CEA040485
:1005200091F803C0BCF1280F06D14FF0010C0CFA72
:1005300000FCC2F814C00AE091F803C0BCF1480FF7
:1005400005D14FF0010C0CFA00FCC2F810C0401CA1
:100550000828D1D31460B1F800C0BCF1FF0F34DD1E
:10056000546800202EE000F1080C4FF0010808FA52
:100570000CF3B1F800C00CEA03069E4221D18300BF
:100580004FF00F0C0CFA03F7BC4305FA03FC4CEADE
:10059000040491F803C0BCF1280F05D100F1080C48
:1005A00008FA0CF8C2F8148091F803C0BCF1480FA7
:1005B00007D100F1080C4FF0010808FA0CF8C2F856
:1005C0001080401C0828CED35460BDE8F08102465C
:1005D000002093680B400BB1012000E00020704721
:1005E00000BFFEE700BFFEE77047000070B50021C6
:1005F00000230F22C47804B3154C246804F4E0648B
:10060000C4F5E064210AC1F10403CA40447804FA45
:1006100003F184781440214309010E4C0678A1555A
:10062000047804F01F050124AC4005786D11AD007D
:1006300005F1E025C5F8004109E0047804F01F0544
:100640000124AC40044D0678761145F8264070BD73
:100650000CED00E000E400E080E100E07047000005
:1006600029B1064AD2690243044BDA6104E0034A25
:10067000D2698243014BDA617047000000100240EA
:1006800029B1064A92690243044B9A6104E0034A85
:1006900092698243014B9A6170470000001002404A
:1006A00030B500210022002400232D4D6D6805F097
:1006B0000C0121B1042905D0082923D105E0294DD9
:1006C000056022E0274D05601FE0254D6D6805F4AB
:1006D0007012234D6D6805F48034022505EB9242BB
:1006E0001CB9214D554305600BE01D4D6D6805F4A7
:1006F00000351DB11C4D5543056002E0194D5543B1
:10070000056002E0174D056000BF00BF144D6D6825
:1007100005F0F0010909154D6B5C0568DD40456089
:100720000F4D6D6805F4E061090A104D6B5C45687A
:10073000DD4085600A4D6D6805F46051C90A0B4DB6
:100740006B5C4568DD40C560054D6D6805F4404152
:10075000890B074D6B5CC568B5FBF3F5056130BDD2
:100760000010024000127A0000093D001400002031
:1007700024000020704710B500F002F810BD000002
:100780000CB50020019000903348006840F48030A0
:100790003149086000BF3048006800F40030009024
:1007A0000198401C0190009818B90198B0F5A06F0D
:1007B000F1D12948006800F4003010B10120009008
:1007C00001E0002000900098012843D123480068F0
:1007D00040F01000214908600846006820F003003E
:1007E00008600846006840F0020008601A48406847
:1007F000194948600846406848600846406840F427
:10080000806048600846406820F47C1048600846D4
:10081000406840F4E81048600846006840F0807086
:10082000086000BF0C48006800F000700028F9D094
:100830000948406820F003000749486008464068BE
:1008400040F00200486000BF0348406800F00C0020
:100850000828F9D10CBD0000001002400020024021
:10086000042808D14FF0E021096941F004014FF05C
:10087000E022116107E04FF0E021096921F0040155
:100880004FF0E022116170477047000010B5134827
:10089000006840F0010011490860084640681049AE
:1008A00008400E494860084600680E4908400B4958
:1008B00008600846006820F4802008600846406808
:1008C00020F4FE0048604FF41F008860FFF753FFDC
:1008D0004FF000600449086010BD000000100240A5
:1008E0000000FFF8FFFFF6FE08ED00E0F0B50C4653
:1008F000154600220021068C4FF6FE773E40068406
:10090000028B018C4FF60C7632407E1C06EA0316F1
:100910002E433243104EB0420ED0104EB0420BD098
:10092000B0F1804F08D00E4EB04205D00D4EB0420F
:1009300002D00D4EB04206D14FF6FD76314044F064
:100940000106314305E04FF6F576314044F00106EB
:10095000314302830184F0BD002C0140003401408A
:100960000004004000080040000C0040F0B50C46B8
:100970001546002200210026078C4FF6EF7C07EA7F
:100980000C070784028B018C4FF6FF7707EA0416E9
:1009900040F6FF473A404FF6FF7707EA03373A43FE
:1009A0004FF6FF7707EA05273A43114FB8420ED0BA
:1009B000104FB8420BD0B0F1804F08D00E4FB84264
:1009C00005D00E4FB84202D00D4FB84206D14FF6B7
:1009D000DF77394046F01007394305E04FF65F777F
:1009E000394044F01007394302830184F0BD000010
:1009F000002C014000340140000400400008004089
:100A0000000C0040F0B50C461546002200210026DF
:100A1000078C4FF6FF6C07EA0C070784828B018C6A
:100A20004FF6FF7707EA04264FF60C773A404FF669
:100A3000FF7707EA03172F433A43114FB8420ED00E
:100A4000104FB8420BD0B0F1804F08D00E4FB842D3
:100A500005D00E4FB84202D00D4FB84206D14FF626
:100A6000FF57394046F48077394305E04FF2FF578E
:100A7000394044F48077394382830184F0BD00001B
:100A8000002C0140003401400004004000080040F8
:100A9000000C0040F0B50C4615460022002100264F
:100AA000078C4EF6FF7C07EA0C070784828B018CCB
:100AB0004FF6FF7707EA043640F6FF473A404FF615
:100AC000FF7707EA05273A434FF6FF7707EA033730
:100AD0003A43114FB8420ED0104FB8420BD0B0F18C
:100AE000804F08D00E4FB84205D00E4FB84202D00A
:100AF0000D4FB84206D14DF6FF77394046F4805786
:100B0000394305E047F6FF57394044F480573943ED
:100B100082830184F0BD0000002C014000340140BC
:100B20000004004000080040000C004021B1028891
:100B300042F00102028004E002884FF6FE731A4080
:100B400002807047F0B50C4615461E460021002273
:100B500000230189028B038C4FF6F877394021433B
:100B60004FF6FC473A4040F201173A434FF6DD7723
:100B70003B404FF6FF7707EA06172F433B430181BF
:100B800002830384F0BD0146888C704770B505462A
:100B90000C46244885420ED0234885420BD0B5F13F
:100BA000804F08D02148854205D02148854202D097
:100BB0002048854200D100E000BF208850B9238939
:100BC000A28861882846FFF791FEE188284600F058
:100BD0003EF825E0208804280AD12389A28861886C
:100BE0002846FFF7C3FEE188284600F039F817E0F1
:100BF000208808280AD12389A28861882846FFF71F
:100C000001FFE188284600F038F809E02389A2882E
:100C100061882846FFF73EFFE188284600F036F855
:100C200070BD0000002C0140003401400004004071
:100C300000080040000C004000210180418001219B
:100C400081800021C1800181704781847047028BBF
:100C50004FF6F3731A400283028B0A4302837047F4
:100C6000028B4FF2FF331A400283028B4FF6FF7361
:100C700003EA01231A4302837047828B4FF6F37312
:100C80001A408283828B0A4382837047828B4FF2A1
:100C9000FF331A408283828B4FF6FF7303EA0123EE
:100CA0001A43828370470000002202881D4B98423D
:100CB0000ED01D4B98420BD0B0F1804F08D01B4B8B
:100CC000984205D01A4B984202D01A4B984204D150
:100CD0004FF68F731A404B881A43174B984207D030
:100CE000164B984204D04FF6FF431A40CB881A4364
:100CF00002808B8883850B8803850A4B98420BD032
:100D0000094B984208D00E4B984205D00D4B9842A3
:100D100002D00D4B984201D10B7A038601238382C6
:100D200070470000002C01400034014000040040E6
:100D300000080040000C004000100040001400407B
:100D400000400140004401400048014010B540F21D
:100D500025511E4800F0DCF8002836D01B4800F072
:100D600093F904461A490868411C194B196019493E
:100D70000C540120184908600D2C01D00A2C02D116
:100D80000020134908600D2C0AD00A2C08D0202C12
:100D900006D00F490868411C0D4B19600D490C54D1
:100DA0000E480068012805D1084800F06DF90C498B
:100DB000087002E000200A490870054800681E28F3
:100DC00002DB00200249086000BF10BD003801406E
:100DD00040000020640000203C000020440000206F
:100DE0004C00002010B50246012000E050430B1ECD
:100DF000A1F10101FAD110BD10B504462146054804
:100E000000F047F900BF8021024800F074F8002884
:100E1000F9D010BD003801402DE9F04106460C46DE
:100E2000002512E0601B411E0A20FFF7DBFFB6FB26
:100E3000F0F00A21B0FBF1F201FB120000F13007E3
:100E40003846FFF7D9FF681CC5B2A542EADBBDE80A
:100E5000F081000010B504460BE014F8011B0748B0
:100E600000F017F900BF8021044800F044F8002882
:100E7000F9D020780028F0D110BD000000380140E2
:100E800010B540F225510E4800F042F8B0B10D48BF
:100E90000088FF2802D900200A4908800848001D60
:100EA0000088C1B2074802880088401C054B1880A2
:100EB000054881542021024800F008F810BD0000C8
:100EC000004400405A0000206403002001F4007236
:100ED000B2F5007F00D100BFCA430280704721B144
:100EE000828942F40052828104E082894DF6FF73C8
:100EF0001A408281704702460020B1F5007F00D180
:100F000000BF13880B400BB1012000E000207047A8
:100F100070B50246002400230025002040F66A1622
:100F2000B14200D100BFC1F3421501F01F030126F9
:100F300006FA03F3012D02D19689334006E0022D13
:100F400002D1168A334001E0968A33400C12012602
:100F500006FA04F41688344013B10CB1012000E005
:100F6000002070BDF0B503460024002600250020B7
:100F700040F66A17B94200D100BF1846C1F34214C7
:100F800001F01F06012707FA06F5012C01D10C30EC
:100F900004E0022C01D1103000E014301AB10768CF
:100FA0002F43076002E00768AF430760F0BD000011
:100FB0002DE9F04786B005460E460024A24600BF44
:100FC000A1460027B08900B100BF2F462C8A4CF6FD
:100FD000FF700440F08804432C82AC894EF6F31075
:100FE0000440B08831890843718908430443AC81C7
:100FF000AC8A4FF6FF400440B0890443AC8201A89C
:10100000FFF74EFB1F48874202D1DDF810A001E038
:10101000DDF80CA0A88900F4004040B10AEBCA003A
:1010200000EB0A1031684900B0FBF1F807E00AEB69
:10103000CA0000EB0A1031688900B0FBF1F86420A7
:10104000B8FBF0F004012009642101FB1089A88994
:1010500000F4004040B1322000EBC900B0FBF1F0D9
:1010600000F00700044308E0322000EB091064217F
:10107000B0FBF1F000F00F0004432C8106B0BDE896
:10108000F08700000038014001468888C0F308005E
:101090007047C1F308028280704700BFFEE700007E
:1010A00010B586B0044601210420FFF7E9FA0121BA
:1010B0008803FFF7E5FA18208DF817004FF4007049
:1010C000ADF8140003208DF8160005A91D48FFF7A0
:1010D000F3F904208DF817000002ADF81400032086
:1010E0008DF8160005A91748FFF7E6F925208DF8B9
:1010F000000001208DF8030000208DF801008DF81C
:1011000002006846FFF772FA01940020ADF8100063
:101110000C20ADF80E000020ADF80C00ADF80A0070
:10112000ADF8080001A90848FFF742FF012240F28C
:1011300025510548FFF716FF01210348FFF7CFFEB1
:1011400006B010BD000801400038014000BF7047E4
:10115000FFF776F8FFF760F94FF41650FFF7A0FF9E
:101160004FF4C870FFF78EF8002416E0FFF74AF935
:10117000A0420FD0FFF746F904B208A0FFF76AFEBD
:1011800003212046FFF748FE06A0FFF763FE142068
:10119000FFF778F85020FFF775F8E7E7CAFDBEDDE6
:1011A000A3BA00000A000000C811000800000020D7
:1011B00064000000280100082C12000864000020D0
:1011C000640A00004401000800A24A040000000074
:1011D00000000000010203040607080900000000E7
:1011E00001020304010203040607080902040608B9
:1011F00000000000000000000000000000000000EF
:1012000000000000000000000000000001000000DD
:1012100000000000000000000100000000000000CD
:0C122000000000000000000000000000C2
:04000005080000ED02
:00000001FF
