:020000040800F2
:10000000E00A0020890100082D08000825080008E2
:100010002908000881040008830E00080000000081
:10002000000000000000000000000000B10900080E
:100030008504000800000000A1080008C50A0008A7
:10004000A3010008A3010008A3010008A301000800
:10005000A3010008A3010008A3010008A3010008F0
:10006000A3010008A3010008A3010008A3010008E0
:10007000A3010008A3010008A3010008A3010008D0
:10008000A3010008A3010008A3010008A3010008C0
:10009000A3010008A3010008A30100081905000836
:1000A000A3010008A3010008A3010008A3010008A0
:1000B000A3010008A3010008A3010008A301000890
:1000C000A3010008A3010008A3010008A301000880
:1000D000A3010008350B0008690C0008A301000803
:1000E000A3010008A3010008A301000800F002F822
:1000F00000F03AF80AA090E8000C82448344AAF188
:100100000107DA4501D100F02FF8AFF2090EBAE885
:100110000F0013F0010F18BFFB1A43F0010318473B
:10012000700E0000900E0000103A24BF78C878C10D
:10013000FAD8520724BF30C830C144BF04680C60ED
:10014000704700000023002400250026103A28BF35
:1001500078C1FBD8520728BF30C148BF0B60704739
:100160001FB51FBD10B510BD00F033F81146FFF7E5
:10017000F7FF00F0E1FE00F051F803B4FFF7F2FFE3
:1001800003BC00F0D7FE000009488047094800473B
:10019000FEE7FEE7FEE7FEE7FEE7FEE7FEE7FEE737
:1001A000FEE7FEE704480549054A064B7047000094
:1001B000C90A0008ED000008E0040020E00A002061
:1001C000E0060020E0060020704770477047704747
:1001D0007047754600F028F8AE460500694653465C
:1001E00020F00700854618B020B5FFF7DBFFBDE81B
:1001F00020404FF000064FF000074FF000084FF08E
:10020000000B21F00701AC46ACE8C009ACE8C0091E
:10021000ACE8C009ACE8C0098D4670470446AFF3AE
:1002200000802046FFF7A9FF004870477C040020AB
:1002300021B1826842F00102826003E0826822F00C
:10024000010282607047014600208A6802F00402C1
:100250000AB1012000E0002070470146C86C80B25E
:1002600070470246002013680B400BB1012000E0EC
:1002700000207047014600208A6802F008020AB197
:10028000012000E00020704730B502460020002326
:1002900050680F4C20400D790C6844EA0524204337
:1002A000506090680B4C2040D1E902542C434D79AA
:1002B00044EA450420439060D06A20F470000C7C2E
:1002C000641EE4B2234340EA0350D06230BD000014
:1002D000FFFEF0FFFDF7F1FFF0B504460D460020EC
:1002E0000021092D11DDE068A5F10A0606EB46079D
:1002F000072606FA07F18843A5F10A0606EB46062B
:1003000003FA06F10843E0600CE0206905EB4507BD
:10031000072606FA07F1884305EB450603FA06F1BE
:1003200008432061072A0FDA606B561E06EB86072A
:100330001F2606FA07F18843561E06EB860605FAC5
:1003400006F10843606322E00D2A0FDA206BD61F06
:1003500006EB86071F2606FA07F18843D61F06EB31
:10036000860605FA06F10843206310E0E06AA2F170
:100370000D0606EB86071F2606FA07F18843A2F151
:100380000D0606EB860605FA06F10843E062F0BDAD
:10039000816841F008018160704721B1826842F4B0
:1003A000A002826003E0826822F4A00282607047AB
:1003B000816841F0040181607047000010B5044677
:1003C0000523012221460948FFF786FF012107483E
:1003D000FFF7E3FF00BF02210448FFF742FF0028B8
:1003E000F9D00248FFF739FF10BD0000002401409A
:1003F00000B587B00121480200F060FA0121082011
:1004000000F05CFA4FF4004000F04CFA00208DF848
:100410001B000320ADF818008DF81A0006A9164835
:1004200000F014F90020019004904FF46020039034
:1004300000208DF809008DF8080001208DF81400C7
:1004400001A90E48FFF720FF01210C48FFF7F0FE3D
:100450000A48FFF79DFF00BF0848FFF70BFF012880
:10046000FAD00648FFF7A4FF00BF0448FFF7EBFEF1
:100470000128FAD007B000BD000C01400024014063
:1004800000BFFEE77047000010B56FF0040000F0F9
:1004900005FB0A4800680A49B0FBF1F009490870F9
:1004A0000846007800EB4001C1EBC0104FF6FF7129
:1004B00001EAC0000449088010BD000000000020CF
:1004C00000127A0036000020380000200146114A50
:1004D00012884A434FF0E0235A6100229A611A467B
:1004E000126942F001021A6100BF4FF0E022106968
:1004F00000F001021AB100F48032002AF5D04FF06A
:10050000E022126922F001024FF0E0231A6100227A
:100510009A6170473800002010B5202000F082F862
:1005200000286BD0202000F077F82021344800F01C
:1005300018F938B10021334800F0F9FA00203249A7
:1005400008805BE02F4800F0EFFA2F49088008464A
:100550000088B0F5C87F0BDD08460088B0F5FA7F4B
:1005600006DA01202949087000202949086045E081
:1005700026480078002841D02348008828280CDD30
:1005800021480088482808DA2148006840002049AE
:10059000086008460068086030E01B48008896281C
:1005A0000EDD19480088BA280ADA194800684000A8
:1005B000174908600846006840F0010008601DE027
:1005C00011480088B0F57A6F03DC0F480088DC28FA
:1005D00014DA00200D4908700D480068000E0D491E
:1005E00008700B480068000C487009480088000A31
:1005F000887007480078C8700120087110BD00009D
:1006000000180140000400402E00002034000020AB
:1006100030000020280000200149086070470000D9
:1006200014040140014600200022074B1B6803EA26
:100630000102054B14331B680B4013B10AB10120B2
:1006400000E0002070470000000401402DE9F04167
:10065000024600250026002000230024002791F8F0
:1006600003C00CF00F0591F803C00CF0100CBCF1A6
:10067000000F03D091F802C04CEA050591F800C0C4
:10068000BCF1000F31D0146800202BE04FF0010CBA
:100690000CFA00F3B1F800C00CEA03069E4220D128
:1006A00083004FF00F0C0CFA03F7BC4305FA03FC70
:1006B0004CEA040491F803C0BCF1280F06D14FF0B6
:1006C000010C0CFA00FCC2F814C00AE091F803C057
:1006D000BCF1480F05D14FF0010C0CFA00FCC2F838
:1006E00010C0401C0828D1D31460B1F800C0BCF180
:1006F000FF0F34DD546800202EE000F1080C4FF0AD
:10070000010808FA0CF3B1F800C00CEA03069E4297
:1007100021D183004FF00F0C0CFA03F7BC4305FA0C
:1007200003FC4CEA040491F803C0BCF1280F05D186
:1007300000F1080C08FA0CF8C2F8148091F803C014
:10074000BCF1480F07D100F1080C4FF0010808FA7E
:100750000CF8C2F81080401C0828CED35460BDE8C5
:10076000F0810246002093680B400BB1012000E0AD
:100770000020704710B500202449086013E00920CC
:10078000FFF71CFE224908600846006821490968F5
:1007900008442049086000201D4908601B48006883
:1007A000401C1A490860194800683228E7DD1948DA
:1007B00000683221B0FBF1F0164908600846006875
:1007C00015490968884203D913480068114908602F
:1007D0001048006811490968884203D20F48006830
:1007E0000C4908600C4800680A490968401A6421ED
:1007F000484309490968094A1268891AB0FBF1F0AF
:10080000074908600846006810BD00007400002019
:100810006C000020700000206000002064000020B8
:100820006800002000BFFEE700BFFEE77047000041
:1008300070B5002100230F22C47804B3154C24683E
:1008400004F4E064C4F5E064210AC1F10403CA4081
:10085000447804FA03F184781440214309010E4CD2
:100860000678A155047804F01F050124AC400578F2
:100870006D11AD0005F1E025C5F8004109E00478EF
:1008800004F01F050124AC40044D0678761145F8AC
:10089000264070BD0CED00E000E400E080E100E0E7
:1008A0007047000001460020034A506820F4404091
:1008B00008435060704700000010024029B1064A0A
:1008C00092690243044B9A6104E0034A92698243AD
:1008D000014B9A61704700000010024030B50021C2
:1008E0000022002400232D4D6D6805F00C0121B17C
:1008F000042905D0082923D105E0294D056022E00F
:10090000274D05601FE0254D6D6805F47012234DDD
:100910006D6805F48034022505EB92421CB9214D27
:10092000554305600BE01D4D6D6805F400351DB1A4
:100930001C4D5543056002E0194D5543056002E02A
:10094000174D056000BF00BF144D6D6805F0F00144
:100950000909154D6B5C0568DD4045600F4D6D68FC
:1009600005F4E061090A104D6B5C4568DD40856067
:100970000A4D6D6805F46051C90A0B4D6B5C456802
:10098000DD40C560054D6D6805F44041890B074D9C
:100990006B5CC568B5FBF3F5056130BD0010024026
:1009A00000127A0000093D001400002024000020FD
:1009B000704710B500F002F810BD00000CB5002023
:1009C000019000903348006840F48030314908605D
:1009D00000BF3048006800F4003000900198401CCF
:1009E0000190009818B90198B0F5A06FF1D129488D
:1009F000006800F4003010B10120009001E00020F8
:100A000000900098012843D12348006840F010006E
:100A1000214908600846006820F003000860084685
:100A2000006840F0020008601A48406819494860B0
:100A30000846406848600846406840F48060486066
:100A40000846406820F47C1048600846406840F43E
:100A5000E81048600846006840F08070086000BFF9
:100A60000C48006800F000700028F9D00948406880
:100A700020F00300074948600846406840F0020043
:100A8000486000BF0348406800F00C000828F9D116
:100A90000CBD00000010024000200240042808D1D4
:100AA0004FF0E021096941F004014FF0E0221161AB
:100AB00007E04FF0E021096921F004014FF0E02246
:100AC000116170477047000010B51348006840F08E
:100AD00001001149086008464068104908400E4965
:100AE0004860084600680E4908400B4908600846FF
:100AF000006820F4802008600846406820F4FE006A
:100B000048604FF41F008860FFF753FF4FF000600C
:100B10000449086010BD0000001002400000FFF80A
:100B2000FFFFF6FE08ED00E00146888C70478184E7
:100B30007047000010B540F225511E4800F0DCF867
:100B4000002836D01B4800F093F904461A4908687B
:100B5000411C194B196019490C54012018490860AF
:100B60000D2C01D00A2C02D10020134908600D2C55
:100B70000AD00A2C08D0202C06D00F490868411C46
:100B80000D4B19600D490C540E480068012805D121
:100B9000084800F06DF90C49087002E000200A498D
:100BA0000870054800681E2802DB00200249086022
:100BB00000BF10BD00380140400000207C00002034
:100BC0003C000020440000204C00002010B50246EC
:100BD000012000E050430B00A1F10101FAD110BD4A
:100BE00010B504462146054800F047F900BF8021B2
:100BF000024800F074F80028F9D010BD0038014018
:100C00002DE9F04106460C46002512E0601B411E0E
:100C10000A20FFF7DBFFB6FBF0F00A21B0FBF1F290
:100C200001FB120000F130073846FFF7D9FF681CBE
:100C3000C5B2A542EADBBDE8F081000010B504466C
:100C40000BE014F8011B074800F017F900BF8021E2
:100C5000044800F044F80028F9D020780028F0D1AA
:100C600010BD00000038014010B540F225510E487B
:100C700000F042F8B0B10D480088FF2802D90020EA
:100C80000A4908800848001D0088C1B20748028848
:100C90000088401C054B18800548815420210248DB
:100CA00000F008F810BD000000440040580000208B
:100CB0007C03002001F40072B2F5007F00D100BF78
:100CC000CA430280704721B1828942F40052828176
:100CD00004E082894DF6FF731A4082817047024614
:100CE0000020B1F5007F00D100BF13880B400BB18D
:100CF000012000E00020704770B502460024002368
:100D00000025002040F66A16B14200D100BFC1F3B1
:100D1000421501F01F03012606FA03F3012D02D14B
:100D20009689334006E0022D02D1168A334001E055
:100D3000968A33400C12012606FA04F416883440D1
:100D400013B10CB1012000E0002070BDF0B50346E6
:100D5000002400260025002040F66A17B94200D181
:100D600000BF1846C1F3421401F01F06012707FA1D
:100D700006F5012C01D10C3004E0022C01D1103019
:100D800000E014301AB107682F43076002E00768DB
:100D9000AF430760F0BD00002DE9F04786B005467F
:100DA0000E460024A24600BFA1460027B08900B12C
:100DB00000BF2F462C8A4CF6FF700440F088044395
:100DC0002C82AC894EF6F3100440B0883189084378
:100DD000718908430443AC81AC8A4FF6FF4004405C
:100DE000B0890443AC8201A8FFF778FD1F48874211
:100DF00002D1DDF810A001E0DDF80CA0A88900F414
:100E0000004040B10AEBCA0000EB0A10316849000B
:100E1000B0FBF1F807E00AEBCA0000EB0A103168FA
:100E20008900B0FBF1F86420B8FBF0F00401200960
:100E3000642101FB1089A88900F4004040B13220F0
:100E400000EBC900B0FBF1F000F00700044308E03C
:100E5000322000EB09106421B0FBF1F000F00F002C
:100E600004432C8106B0BDE8F08700000038014043
:100E700001468888C0F308007047C1F308028280E9
:100E8000704700BFFEE7000010B586B004460121A0
:100E90000420FFF713FD01218803FFF70FFD182041
:100EA0008DF817004FF40070ADF8140003208DF892
:100EB000160005A91D48FFF7C9FB04208DF817008F
:100EC0000002ADF8140003208DF8160005A917489C
:100ED000FFF7BCFB25208DF8000001208DF80300F2
:100EE00000208DF801008DF802006846FFF7A0FC95
:100EF00001940020ADF810000C20ADF80E00002089
:100F0000ADF80C00ADF80A00ADF8080001A90848DA
:100F1000FFF742FF012240F225510548FFF716FF77
:100F200001210348FFF7CFFE06B010BD00080140C5
:100F30000038014000BF7047FFF7A6FAFFF758FAE4
:100F40004FF41650FFF7A0FF4FF4C870FFF7BEFA3A
:100F500012E0FFF70FFC0949086009A0FFF76EFED9
:100F6000022106480068FFF74BFE08A0FFF766FE67
:100F70004FF4FA70FFF7AAFAEBE7000078000020C0
:100F8000B5B1C7B0D2F4C1BFA3BA00000A000000D7
:100F9000B00F0008000000207C00000028010008BD
:100FA0002C1000087C000020640A000044010008A6
:100FB00000A24A0400000000000000000102030437
:100FC00006070809000000000102030401020304EF
:100FD00006070809020406080000000000000000DF
:100FE0000000000000000000000000000000000001
:100FF00000000000010000000000000000000000F0
:1010000001000000000000000000000000000000DF
:10101000B20C0000AA050000000000000000000063
:0C102000000000000000000000000000C4
:04000005080000ED02
:00000001FF
