:020000040800F2
:10000000F80A002091010008EF0A0008E70A00083A
:10001000EB0A00085D050008BB10000800000000A6
:10002000000000000000000000000000590C000863
:100030001907000800000000610B00086D0D0008A2
:10004000AB010008AB010008AB010008AB010008E0
:10005000AB010008AB010008AB010008AB010008D0
:10006000AB010008AB010008AB010008AB010008C0
:10007000AB010008AB010008AB010008AB010008B0
:10008000AB010008AB010008AB010008AB010008A0
:10009000AB010008AB010008AB010008F90700083C
:1000A000AB010008AB010008AB010008AB01000880
:1000B000AB010008AB010008AB010008AB01000870
:1000C000AB010008AB010008AB010008AB01000860
:1000D000AB010008DD0D0008A10E0008AB0100080F
:1000E000AB010008AB010008AB01000800F002F80A
:1000F00000F03FF80AA090E8000C82448344AAF183
:100100000107DA4501D100F034F8AFF2090EBAE880
:100110000F0013F0010F18BFFB1A43F0010318473B
:100120002C1100004C110000103A24BF78C878C18F
:10013000FAD8520724BF30C830C144BF04680C60ED
:10014000704700000023002400250026103A28BF35
:1001500078C1FBD8520728BF30C148BF0B60704739
:10016000642900F04D80002070471FB51FBD10B5F9
:1001700010BD00F0C0F91146FFF7F7FF01F018F8C5
:1001800000F0DEF903B4FFF7F2FF03BC01F00EF854
:100190000948804709480047FEE7FEE7FEE7FEE71B
:1001A000FEE7FEE7FEE7FEE7FEE7FEE70448054957
:1001B000054A064B70470000710D0008ED0000086D
:1001C000F8040020F80A0020F8060020F8060020B5
:1001D000704700000FB41CB5084B06AA7B44694663
:1001E0000090059800F06FF904460020694600F081
:1001F0007DF920461CBC5DF814FB00000D030000D7
:100200002DE9F0410646002410687529314616A5EF
:1002100010D0AFF30080002802DA404213A507E0B7
:1002200031688A0701D512A502E0490704D511A556
:10023000012401E0AFF3008000210A2206F1240727
:1002400009E0B0FBF2FCB0FBF2F302FB1C00303023
:1002500078541846491C0028F3D123462A463046D4
:10026000BDE8F04100F0D0B8000000002D00000013
:100270002B000000200000002DE9F05F89460446B5
:100280004FF0000ADFF874B1FB44C0F820A020460C
:10029000E1688847002874D0252806D0D4E90121D8
:1002A0009047206A401C2062F1E700265F46204606
:1002B000E16888472028054607DB312D05D27819EB
:1002C00010F8200C08B10643F1E7B00701D526F07D
:1002D0000406C4F81CA00027C4F818A02A2D09D0D1
:1002E000284600F05CFF38B304EB8708303DC8F8BF
:1002F000185019E059F8041B204604EB870291615D
:10030000E1688847012F054618D1E069002820DA06
:1003100026F020061DE0D8F8180000EB800005EB61
:1003200040003038C8F818002046E1688847054684
:1003300000F035FF0028EED1012F0AD02E2D08D174
:100340002046E16888477F1C0546022F46F02006BC
:10035000C4DBA069002803DA404246F00106A06130
:10036000F00701D026F010066C2D0BD0682D09D0B7
:100370004C2D39D06A2D35D0742D35D07A2D33D00F
:1003800016E038E0E1682F4620468847B842054627
:1003900009D16C2F26D04FF48060E16806432046D7
:1003A0008847054604E06C2F1AD04FF4807006434E
:1003B0000DB3A5F14100192802D8203546F4006696
:1003C0004A462946204626604E46FFF7C9FE80B1C0
:1003D00001280BD0F61D26F0070000F1080956E7AA
:1003E0004020E4E78020D8E70020D6E706F10409A2
:1003F0004DE7284652E7206ABDE8F09FAC0F0000A9
:1004000070477047704770472DE9F0470D46994691
:100410009246044600F124080168880604D5E06984
:1004200021F01001216000E00120A84201DD471BFE
:1004300000E00027A1697A1902EB0900081AA061FF
:100440002078C00602D42046AFF30080002608E0E2
:10045000D4E901211AF806009047206A401C761C56
:1004600020624E45F4DB2078C0060AD52046AFF363
:10047000008006E0D4E9012130209047206A401C2A
:100480002062381EA7F10107F4DC07E0D4E901215E
:1004900018F805009047206A401C2062281EA5F12C
:1004A0000105F3DC2046AFF300802078000602D57A
:1004B0000220BDE8F0870120FBE7000001694A1C2B
:1004C00002610878704700B58FB0CDE90131002195
:1004D000059105497944CDE9031011466846FFF7B7
:1004E000CBFE0FB000BD0000E5FFFFFF0A6802F879
:1004F000010B0A607047754600F02CF8AE46050007
:100500006946534620F00700854618B020B5FFF72E
:100510004DFEBDE820404FF000064FF000074FF0C1
:1005200000084FF0000B21F00701AC46ACE8C00911
:10053000ACE8C009ACE8C009ACE8C0098D4670471A
:1005400010B50446AFF300802046BDE81040FFF729
:1005500019BE0000004870479404002000BFFEE769
:1005600010B5002400F024F804E0601CC4B201209F
:1005700000F01CF90D48006808B1642CF5DB642C10
:1005800001DB012010BD002404E0601CC4B2012086
:1005900000F00CF90548006808B9642CF5DB642C00
:1005A00001DB0120EEE70020ECE700003C012142E6
:1005B00008B50121052000F0D5FA0121074800F017
:1005C00041FA4FF40040ADF8000004208DF803001C
:1005D0006946034800F0AAF908BD00000002300097
:1005E0000008014008B50121052000F0BBFA0121F7
:1005F000084800F027FA4FF40040ADF80000102042
:100600008DF8030003208DF802006946024800F0CF
:100610008DF908BD000230000008014010B500F05F
:1006200065F8FFF79DFF10BD10B5002404E0601CC5
:10063000C4B2012000F0BAF80D48006808B1642C7B
:10064000F5DB002404E0601CC4B2012000F0AEF829
:100650000748006808B9642CF5DB282000F0A6F8EC
:100660000348006808B1012010BD0020FCE700002D
:100670003C01214270B50024002506E06006040E0E
:10068000FFF7D2FF0443681CC5B2082DF6DB2046F5
:1006900070BD7CB505460E4600F028F8FFF760FFF8
:1006A000F8B9002405E0FFF7E5FF0DF80400601C31
:1006B000C4B2052CF7DB9DF800009DF8011008443A
:1006C0009DF8021008449DF8031008449DF804109A
:1006D000884208D19DF8000030709DF80200287013
:1006E00001E001207CBD0020FCE7000010B5FFF711
:1006F00079FF002006490860142000F031F801203D
:100700000449C1F8BC011E2000F050F810BD0000E3
:10071000BC012142000021427047000010B56FF07B
:10072000040000F00FFB0A4800680A49B0FBF1F032
:10073000094908700846007800EB4001C1EBC01081
:100740004FF6FF7101EAC0000449088010BD0000A7
:100750000000002000127A0036000020380000203F
:100760000146114A12884A434FF0E0235A610022A1
:100770009A611A46126942F001021A6100BF4FF0F5
:10078000E022106900F001021AB100F48032002A60
:10079000F5D04FF0E022126922F001024FF0E02381
:1007A0001A6100229A617047380000200146114A00
:1007B00012784A434FF0E0235A6100229A611A46A8
:1007C000126942F001021A6100BF4FF0E022106985
:1007D00000F001021AB100F48032002AF5D04FF087
:1007E000E022126922F001024FF0E0231A61002298
:1007F0009A6170473600002010B5202000F082F882
:1008000000286BD0202000F077F82021344800F039
:1008100061F938B10021334800F0DDFA0020324997
:1008200008805BE02F4800F0D3FA2F490880084683
:100830000088B0F5C87F0BDD08460088B0F5FA7F68
:1008400006DA01202949087000202949086045E09E
:1008500026480078002841D02348008828280CDD4D
:1008600021480088482808DA2148006840002049CB
:10087000086008460068086030E01B480088962839
:100880000EDD19480088BA280ADA194800684000C5
:10089000174908600846006840F0010008601DE044
:1008A00011480088B0F57A6F03DC0F480088DC2817
:1008B00014DA00200D4908700D480068000E0D493B
:1008C00008700B480068000C487009480088000A4E
:1008D000887007480078C8700120087110BD0000BA
:1008E00000180140000400402E00002034000020C9
:1008F00030000020280000200149086070470000F7
:1009000014040140014600200022074B1B6803EA43
:100910000102054B14331B680B4013B10AB10120CF
:1009200000E0002070470000000401402DE9F04184
:10093000024600250026002000230024002791F80D
:1009400003C00CF00F0591F803C00CF0100CBCF1C3
:10095000000F03D091F802C04CEA050591F800C0E1
:10096000BCF1000F31D0146800202BE04FF0010CD7
:100970000CFA00F3B1F800C00CEA03069E4220D145
:1009800083004FF00F0C0CFA03F7BC4305FA03FC8D
:100990004CEA040491F803C0BCF1280F06D14FF0D3
:1009A000010C0CFA00FCC2F814C00AE091F803C074
:1009B000BCF1480F05D14FF0010C0CFA00FCC2F855
:1009C00010C0401C0828D1D31460B1F800C0BCF19D
:1009D000FF0F34DD546800202EE000F1080C4FF0CA
:1009E000010808FA0CF3B1F800C00CEA03069E42B5
:1009F00021D183004FF00F0C0CFA03F7BC4305FA2A
:100A000003FC4CEA040491F803C0BCF1280F05D1A3
:100A100000F1080C08FA0CF8C2F8148091F803C031
:100A2000BCF1480F07D100F1080C4FF0010808FA9B
:100A30000CF8C2F81080401C0828CED35460BDE8E2
:100A4000F0810000F0B50A460023002400210025B3
:100A500000F00046B6F1004F02D11D4EF16901E0F1
:100A60001B4E7168C0F3034583B200F44016B6F51F
:100A7000401F08D121F07061154E766826F070662F
:100A8000134F7E6012E000F48016B6F5801F06D189
:100A9000032606FA05F4A14341F0706106E0460D15
:100AA000360103FA06F6B14341F0706122B1460DFA
:100AB000360103FA06F6314300F00046B6F1004F66
:100AC00002D1034EF16101E0014E7160F0BD000002
:100AD000000001400246002093680B400BB101204A
:100AE00000E00020704700BFFEE700BFFEE7704750
:100AF00070B5002100230F22C47804B3154C24687C
:100B000004F4E064C4F5E064210AC1F10403CA40BE
:100B1000447804FA03F184781440214309010E4C0F
:100B20000678A155047804F01F050124AC4005782F
:100B30006D11AD0005F1E025C5F8004109E004782C
:100B400004F01F050124AC40044D0678761145F8E9
:100B5000264070BD0CED00E000E400E080E100E024
:100B60007047000029B1064A92690243044B9A611A
:100B700004E0034A92698243014B9A617047000086
:100B80000010024030B500210022002400232D4D2A
:100B90006D6805F00C0121B1042905D0082923D185
:100BA00005E0294D056022E0274D05601FE0254D39
:100BB0006D6805F47012234D6D6805F480340225CC
:100BC00005EB92421CB9214D554305600BE01D4DCC
:100BD0006D6805F400351DB11C4D5543056002E0FC
:100BE000194D5543056002E0174D056000BF00BF79
:100BF000144D6D6805F0F0010909154D6B5C056831
:100C0000DD4045600F4D6D6805F4E061090A104D47
:100C10006B5C4568DD4085600A4D6D6805F4605188
:100C2000C90A0B4D6B5C4568DD40C560054D6D68BC
:100C300005F44041890B074D6B5CC568B5FBF3F5C6
:100C4000056130BD0010024000127A0000093D002D
:100C50001400002024000020704710B500F002F8B6
:100C600010BD00000CB500200190009033480068D2
:100C700040F480303149086000BF3048006800F41B
:100C8000003000900198401C0190009818B901981C
:100C9000B0F5A06FF1D12948006800F4003010B120
:100CA0000120009001E0002000900098012843D12D
:100CB0002348006840F01000214908600846006899
:100CC00020F0030008600846006840F00200086059
:100CD0001A48406819494860084640684860084614
:100CE000406840F4806048600846406820F47C100A
:100CF00048600846406840F4E810486008460068CC
:100D000040F08070086000BF0C48006800F0007080
:100D10000028F9D00948406820F0030007494860DE
:100D20000846406840F00200486000BF0348406841
:100D300000F00C000828F9D10CBD000000100240A2
:100D400000200240042808D14FF0E021096941F059
:100D500004014FF0E022116107E04FF0E021096942
:100D600021F004014FF0E02211617047704700004C
:100D700010B51348006840F00100114908600846AA
:100D80004068104908400E494860084600680E490E
:100D900008400B4908600846006820F4802008607D
:100DA0000846406820F4FE0048604FF41F00886049
:100DB000FFF753FF4FF000600449086010BD0000CA
:100DC000001002400000FFF8FFFFF6FE08ED00E013
:100DD0000146888C704781847047000010B540F24E
:100DE00025511E4800F0A4F8002836D01B4800F01A
:100DF0005BF904461A490868411C194B19601949E6
:100E00000C540120184908600D2C01D00A2C02D185
:100E10000020134908600D2C0AD00A2C08D0202C81
:100E200006D00F490868411C0D4B19600D490C5440
:100E30000E480068012805D1084800F035F90C4932
:100E4000087002E000200A490870054800681E2862
:100E500002DB00200249086000BF10BD00380140DD
:100E600040000020640000203C00002044000020DE
:100E70004C00002010B504460BE014F8011B074895
:100E800000F017F900BF8021044800F044F8002862
:100E9000F9D020780028F0D110BD000000380140C2
:100EA00010B540F225510E4800F042F8B0B10D489F
:100EB0000088FF2802D900200A4908800848001D40
:100EC0000088C1B2074802880088401C054B188082
:100ED000054881542021024800F008F810BD0000A8
:100EE00000440040580000206403002001F4007218
:100EF000B2F5007F00D100BFCA430280704721B124
:100F0000828942F40052828104E082894DF6FF73A7
:100F10001A408281704702460020B1F5007F00D15F
:100F200000BF13880B400BB1012000E00020704788
:100F300070B50246002400230025002040F66A1602
:100F4000B14200D100BFC1F3421501F01F030126D9
:100F500006FA03F3012D02D19689334006E0022DF3
:100F600002D1168A334001E0968A33400C120126E2
:100F700006FA04F41688344013B10CB1012000E0E5
:100F8000002070BDF0B50346002400260025002097
:100F900040F66A17B94200D100BF1846C1F34214A7
:100FA00001F01F06012707FA06F5012C01D10C30CC
:100FB00004E0022C01D1103000E014301AB10768AF
:100FC0002F43076002E00768AF430760F0BD0000F1
:100FD0002DE9F04786B005460E460024A24600BF24
:100FE000A1460027B08900B100BF2F462C8A4CF6DD
:100FF000FF700440F08804432C82AC894EF6F31055
:101000000440B08831890843718908430443AC81A6
:10101000AC8A4FF6FF400440B0890443AC8201A87B
:10102000FFF7B0FD1F48874202D1DDF810A001E0B4
:10103000DDF80CA0A88900F4004040B10AEBCA001A
:1010400000EB0A1031684900B0FBF1F807E00AEB49
:10105000CA0000EB0A1031688900B0FBF1F8642087
:10106000B8FBF0F004012009642101FB1089A88974
:1010700000F4004040B1322000EBC900B0FBF1F0B9
:1010800000F00700044308E0322000EB091064215F
:10109000B0FBF1F000F00F0004432C8106B0BDE876
:1010A000F08700000038014001468888C0F308003E
:1010B0007047C1F308028280704700BFFEE700005E
:1010C00010B586B0044601210420FFF74BFD012135
:1010D0008803FFF747FD18208DF817004FF40070C4
:1010E000ADF8140003208DF8160005A91D48FFF780
:1010F0001DFC04208DF817000002ADF81400032039
:101100008DF8160005A91748FFF710FC25208DF86B
:10111000000001208DF8030000208DF801008DF8FB
:1011200002006846FFF7E4FC01940020ADF81000CF
:101130000C20ADF80E000020ADF80C00ADF80A0050
:10114000ADF8080001A90848FFF742FF012240F26C
:1011500025510548FFF716FF01210348FFF7CFFE91
:1011600006B010BD00080140003801402DE9F041F3
:1011700007460C46154600260DE014F8011B3846BC
:10118000FFF797FF00BF40213846FFF7C4FE002855
:10119000F9D0701C86B2AE42EFDBBDE8F08130388A
:1011A0000A2801D2012070470020704700BF704715
:1011B000FFF7B4FAFFF732FA4FF41650FFF780FF4B
:1011C0004FF4C870FFF7CCFA23E012491248FFF73A
:1011D00060FA12A0FFF74EFE0E48027811A11248E5
:1011E000FEF7F8FF022210491048FFF7BFFF10A0DA
:1011F000FFF740FE084802780AA10B48FEF7EAFF15
:10120000022209490948FFF7B1FF4FF4FA70FFF7CE
:10121000A7FADAE76000002061000020CAAAB6C879
:10122000A3BA0000256400006404002000380140D7
:101230000ACEC2B6C8A3BA0004000008000000002D
:101240000000000200010000100000006C12000805
:10125000000000206400000028010008D0120008EF
:1012600064000020940A00004401000800A24A041F
:101270000000000000000000010203040607080946
:10128000000000000102030401020304060708092C
:10129000020406080000000000000000000000003A
:1012A000000000000000000000000000000000003E
:1012B000010000000000000000000000010000002C
:1012C000000000000000000000000000000000001E
:04000005080000ED02
:00000001FF
