:020000040800F2
:100000008806002089010008A50500083D050008B4
:10001000A1050008430200084B070008000000008B
:10002000000000000000000000000000C9050008FA
:100030004702000800000000A7050008DD060008D0
:10004000A3010008A3010008A3010008A301000800
:10005000A3010008A3010008A3010008A3010008F0
:10006000A3010008A3010008A3010008A3010008E0
:10007000A3010008A3010008A3010008A3010008D0
:10008000A3010008A3010008A3010008A3010008C0
:10009000A3010008A3010008A3010008D902000879
:1000A000A3010008A3010008A3010008A3010008A0
:1000B000A3010008A3010008A3010008A301000890
:1000C000A3010008A3010008A3010008A301000880
:1000D000A3010008A3010008A3010008A301000870
:1000E000A3010008A3010008A301000800F002F822
:1000F00000F03AF80AA090E8000C82448344AAF188
:100100000107DA4501D100F02FF8AFF2090EBAE885
:100110000F0013F0010F18BFFB1A43F0010318473B
:100120007406000094060000103A24BF78C878C115
:10013000FAD8520724BF30C830C144BF04680C60ED
:10014000704700000023002400250026103A28BF35
:1001500078C1FBD8520728BF30C148BF0B60704739
:100160001FB51FBD10B510BD00F031F81146FFF7E7
:10017000F7FF00F0EDFA00F04FF803B4FFF7F2FFDD
:1001800003BC00F057F800000948804709480047C1
:10019000FEE7FEE7FEE7FEE7FEE7FEE7FEE7FEE737
:1001A000FEE7FEE704480549054A064B7047000094
:1001B000E1060008ED000008880000208806002005
:1001C00088020020880200207047704770477546FB
:1001D00000F02CF8AE4605006946534620F00700B3
:1001E000854618B020B5FFF7DDFFBDE820404FF091
:1001F00000064FF000074FF000084FF0000B21F011
:100200000701AC46ACE8C009ACE8C009ACE8C009DD
:10021000ACE8C0098D46704710B50446AFF30080C6
:100220002046BDE81040FFF7A8BF00000048704717
:100230002800002001491820ABBEFEE7260002007E
:10024000704700BFFEE7704710B56FF0040000F084
:1002500031FA0A4800680A49B0FBF1F00949087010
:100260000846007800EB4001C1EBC0104FF6FF716B
:1002700001EAC0000449088010BD00000000002011
:1002800000127A0022000020240000200146114ABA
:1002900012884A434FF0E0235A6100229A611A46BD
:1002A000126942F001021A6100BF4FF0E0221069AA
:1002B00000F001021AB100F48032002AF5D04FF0AC
:1002C000E022126922F001024FF0E0231A610022BD
:1002D0009A6170472400002010B5202000F082F8B9
:1002E00000286BD0202000F077F82021344800F05F
:1002F00018F938B10021334800F025FA00203249BE
:1003000008805BE02F4800F01BFA2F490880084660
:100310000088B0F5C87F0BDD08460088B0F5FA7F8D
:1003200006DA01202949087000202949086045E0C3
:1003300026480078002841D02348008828280CDD72
:1003400021480088482808DA2148006840002049F0
:10035000086008460068086030E01B48008896285E
:100360000EDD19480088BA280ADA194800684000EA
:10037000174908600846006840F0010008601DE069
:1003800011480088B0F57A6F03DC0F480088DC283C
:1003900014DA00200D4908700D480068000E0D4960
:1003A00008700B480068000C487009480088000A73
:1003B000887007480078C8700120087110BD0000DF
:1003C00000180140000400401A0000202000002016
:1003D0001C00002014000020014908607047000044
:1003E00014040140014600200022074B1B6803EA69
:1003F0000102054B14331B680B4013B10AB10120F5
:1004000000E0002070470000000401402DE9F041A9
:10041000024600250026002000230024002791F832
:1004200003C00CF00F0591F803C00CF0100CBCF1E8
:10043000000F03D091F802C04CEA050591F800C006
:10044000BCF1000F31D0146800202BE04FF0010CFC
:100450000CFA00F3B1F800C00CEA03069E4220D16A
:1004600083004FF00F0C0CFA03F7BC4305FA03FCB2
:100470004CEA040491F803C0BCF1280F06D14FF0F8
:10048000010C0CFA00FCC2F814C00AE091F803C099
:10049000BCF1480F05D14FF0010C0CFA00FCC2F87A
:1004A00010C0401C0828D1D31460B1F800C0BCF1C2
:1004B000FF0F34DD546800202EE000F1080C4FF0EF
:1004C000010808FA0CF3B1F800C00CEA03069E42DA
:1004D00021D183004FF00F0C0CFA03F7BC4305FA4F
:1004E00003FC4CEA040491F803C0BCF1280F05D1C9
:1004F00000F1080C08FA0CF8C2F8148091F803C057
:10050000BCF1480F07D100F1080C4FF0010808FAC0
:100510000CF8C2F81080401C0828CED35460BDE807
:10052000F0810246002093680B400BB1012000E0EF
:1005300000207047416170470161704700BFFEE7CE
:1005400008B50121102000F02FF84FF40050ADF84D
:10055000000010208DF8030003208DF8020069468A
:100560000D48FFF753FF4FF400510B48FFF7E4FF2E
:100570000121042000F018F84FF40040ADF800000D
:1005800028208DF8030003208DF8020069460348F7
:10059000FFF73CFF08BD00000010014000080140CB
:1005A00000BFFEE77047704729B1064A92690243CF
:1005B000044B9A6104E0034A92698243014B9A61B9
:1005C0007047000000100240704710B500F002F8BC
:1005D00010BD00000CB50020019000903348006869
:1005E00040F480303149086000BF3048006800F4B2
:1005F000003000900198401C0190009818B90198B3
:10060000B0F5A06FF1D12948006800F4003010B1B6
:100610000120009001E0002000900098012843D1C3
:100620002348006840F0100021490860084600682F
:1006300020F0030008600846006840F002000860EF
:100640001A484068194948600846406848600846AA
:10065000406840F4806048600846406820F47C10A0
:1006600048600846406840F4E81048600846006862
:1006700040F08070086000BF0C48006800F0007017
:100680000028F9D00948406820F003000749486075
:100690000846406840F00200486000BF03484068D8
:1006A00000F00C000828F9D10CBD00000010024039
:1006B00000200240042808D14FF0E021096941F0F0
:1006C00004014FF0E022116107E04FF0E0210969D9
:1006D00021F004014FF0E0221161704770470000E3
:1006E00010B51348006840F0010011490860084641
:1006F0004068104908400E494860084600680E49A5
:1007000008400B4908600846006820F48020086013
:100710000846406820F4FE0048604FF41F008860DF
:10072000FFF753FF4FF000600449086010BD000060
:10073000001002400000FFF8FFFFF6FE08ED00E0A9
:100740000146888C70478184704700BFFEE7000037
:10075000FFF77AFDFFF7F4FE17E04FF400410B4876
:10076000FFF7DFFE012807D141030948FFF7E4FE48
:100770000A20FFF78BFD08E04FF400510448FFF713
:10078000D9FE4FF4FA70FFF781FDE6E7000801405B
:1007900000100140B40700080000002028000000FD
:1007A00028010008DC07000828000020600600007F
:1007B0004401000800A24A040000000000000000FC
:1007C0000102030406070809000000000000000001
:0C07D0000000000000000000000000001D
:04000005080000ED02
:00000001FF
